:100000000080001021040000550400005704000087
:10001000590400005B0400005D04000000000000C3
:100020000000000000000000000000005F0400006D
:10003000610400000000000063040000650400008B
:10004000690400006B0400006D0400006F040000F0
:1000500071040000730400007504000077040000C0
:10006000790400007B0400007D0400007F04000090
:100070008104000083040000850400008704000060
:10008000890400008B0400008D0400008F04000030
:100090009104000093040000950400009704000000
:1000A000990400009B0400009D0400009F040000D0
:1000B000A1040000A3040000A5040000A7040000A0
:1000C000A9040000AB040000AD04000010B5054C0D
:1000D000237833B9044810B10448AFF300800121FC
:1000E000217010BDA801001000000000648D000008
:1000F00008B5064B1BB106480649AFF30080064819
:10010000016811B1054A02B1904708BD0000000026
:10011000648D0000AC010010A80100100000000078
:10012000054B10B503F1340204460360426000F051
:1001300045FD204610BD00BF10840000A0F1040062
:10014000FFF7EEBF044A10B5044640F80C2F00F04C
:1001500001FE204610BD00BF6085000038B519487B
:10016000194900F075FD194800F0CAF805E04DF294
:100170000A70C3F6234000F063FA144800F0EAF86E
:100180000028F4D0114800F0EBF805460F4800F0C5
:1001900009F90F4904460B4800F05AFD2A460D495B
:1001A000084800F055FD22460B49064800F050FD76
:1001B0000A49044800F04CFD4FF07E5000F040FA30
:1001C000D1E700BFC4010010B48300001C0200107E
:1001D000CC830000D0830000E0830000F0830000A7
:1001E000064B10B503F1340204460360426000F090
:1001F000E5FC204601F0DEFD204610BD1084000025
:10020000A0F10400ECE700BF38B540F21C25C1F2B4
:1002100000054FF440414CF20102E023C2F2090113
:10022000C2F20902284640F2C80400F041F8C1F2C7
:10023000000440F245112246C0F20001284640F277
:10024000C41501F02BFEC1F200054CF202014CF284
:100250000302C2F20901C2F209022846002300F09B
:1002600071FA40F221112846C0F200012246BDE891
:10027000384001F013BE00BF002380F83C307047C7
:1002800000B50B4683B04968024618686B4603C345
:100290000B46D90707D5581011581018009A8958DD
:1002A000884703B000BD014602EB6300F8E700BFDA
:1002B00070B5044600251E4600F0E6F92672E5609A
:1002C00025616561A561E56125626562A562E562FA
:1002D00025636563A56304F10C0000F025FD064B62
:1002E00004F12000E360294600F0BEF9034884F8D9
:1002F0003C50E060204670BD6085000088850000AD
:1003000070B5002584B0017A03AA02230095512616
:1003100004468DF80C508DF80D6000F0D3F90123E0
:10032000190484F83C3040F2792040F2812341F4F2
:100330008B52C0F20000C0F20003A0626462E5626A
:10034000A363256204F10C0042F0100100F0BCFC34
:1003500004B070BD90F83C0080F00100704700BF11
:10036000F0B5012785B004460025017A022602AACD
:100370003B4600978DF808608DF80C508DF80D50B5
:1003800000F0A0F9217A33460095204603AA00F038
:10039000AFF99DF80C009DF80D3003EB002005B07F
:1003A000F0BD00BF70B5012484B00546017A002677
:1003B00002AA234600948DF808408DF80C6000F0E6
:1003C00081F9297A2846009603AA234600F090F97D
:1003D0009DF80C0004B070BD40F2A81040F2A0429D
:1003E000C1F20000C1F2000208B50021121A03F0A8
:1003F0007CFBAFF3008003F08DFAFFF7AFFE00F057
:10040000F1F800BF022801DC0120704707F0AABF05
:1004100008B5012000F0E6F808B5FFF7F9FF00BFC6
:100420000749084A084B9A42BEBF51F8040B42F8EC
:10043000040BFFF7F8BF0548804705480047000058
:10044000688D0000C8000010A80100100905000018
:10045000D9030000FEE7FEE7FEE7FEE7FEE7FEE762
:10046000FEE7FEE7FEE7FEE7FEE7FEE7FEE7FEE764
:10047000FEE7FEE7FEE7FEE7FEE7FEE7FEE7FEE754
:10048000FEE7FEE7FEE7FEE7FEE7FEE7FEE7FEE744
:10049000FEE7FEE7FEE7FEE7FEE7FEE7FEE7FEE734
:1004A000FEE7FEE7FEE7FEE7FEE7FEE7FEE700BF4A
:1004B0004FF46D43CEF200039A6870B4B2F1805FDE
:1004C00019D09E684FF080553268C6F1805433468B
:1004D0000434C0362A605D681A1DE5509D680833F3
:1004E000B342A550F7D14FF46D4CCEF2000C4FF053
:1004F0008053CCF8083000F11000820002F1805CDB
:10050000CCF8001070BC70474FF44042C4F20F02A8
:10051000202330B4C2F8A031D2F8A001800656D40E
:100520004FF4404CC4F20F0C00250220CCF804011B
:100530000124CCF8A851AA23CCF8AC5155220B25A4
:10054000CCF80C416146CCF88450CCF88C30CCF817
:100550008C20CCF88040CCF88C30CCF88C20D1F8B2
:1005600088204FF4404C5201C4F20F0CF7D50323FE
:10057000AA215522CCF880306046CCF88C10CCF8FB
:100580008C20D0F888104FF4404C11F0407FC4F21A
:100590000F0CF6D048F2DE73C0F22843052000228B
:1005A000CCF80801CCF8C430CCF8C821DCF8001035
:1005B00021F4704323F03A0040F44052084B42F0DB
:1005C0003A010120CCF80010186030BC7047D2F816
:1005D000A0114906A4D4D2F8A0114906F7D59FE787
:1005E0006002001010B5044600F00AF820B904B902
:1005F000FEE700F0C3FBFBE700F004F8F7E700BFFD
:1006000000F06ABE30B585B06D46182420462946F4
:10061000ABBE0446204605B030BD00BF38B5054628
:1006200001F026F9044601F023F9001BA842FAD391
:1006300038BD00BF4FF47A7303FB00F0FFF7EEBF45
:1006400008B501F0EFFF06A3D3E9002302F03EF85E
:1006500002F0D6FABDE80840FFF7E0BFAFF3008034
:100660000000000080842E4100220160426070473B
:1006700008B5036801460BB1984708BD406810B142
:100680008A690831904708BD10B5044600F048FC5F
:1006900048F2A06240F25C23C0F20102C1F2000302
:1006A00062601C60204610BD38B5054D04462B68BD
:1006B000834203D0416800F0C7FC2C6038BD00BF06
:1006C0005C0200102DE9F04104469DF81850884660
:1006D00017461E46FFF7E8FF85F001052046414614
:1006E0003A4633460695BDE8F04100F03BBD00BFF9
:1006F0002DE9F04104469DF81850884617461E46DD
:10070000FFF7D2FF85F00105204641463A463346C1
:100710000695BDE8F04100F0A5BC00BF10B518304B
:100720000C4601F09BF8204610BD00BF183001F0C8
:100730008FB800BFC1EBC10100EB81002030FFF793
:1007400097BF00BFF8B50E4619460446174600F09D
:100750005BFA48F20843C0F2000303F108023C339D
:1007600084E80C00002104F12000FFF77DFF04F174
:100770001805002104F13C00FFF776FF28463146BA
:100780003A4600F029FF40F235712846C0F20001D8
:10079000224601F04DF82046F8BD00BF036870B551
:1007A00000211D6901220446A847431C05460ED0BE
:1007B000216802220E6920460021B04722680646C1
:1007C00013692046294600229847304670BD0646E8
:1007D000FBE700BF0D4B0E4A30B4026003F5807496
:1007E000002501E0A3420FD09C465CF8041B814227
:1007F00008BF4CF8045C634653F8042B8242F1D1E5
:10080000A34243F8045CEFD130BC7047640200108F
:100810009884000038B50F4A0F4B0446026000254B
:1008200003F5807001E083420FD09C465CF8041B06
:100830008C4208BF4CF8045C634653F8042B944286
:10084000F1D1834243F8045CEFD1204601F0B2FAC3
:10085000204638BD98840000640200100E4B10B58D
:100860001C6804B110BD4CF202014CF203020B48AB
:10087000C2F20901C2F2090200F0AEFE08210748E7
:100880002246012300F064FE04484FF41651BDE8EF
:10089000104000F029BD00BF640300109403001055
:1008A000F0B50F4685B02E49064603F09CFA044683
:1008B000002833D030462B4903F095FA48B3304630
:1008C000294903F090FA00282CD02848002406E09B
:1008D0005D680134181D35B10134402C36D04568AF
:1008E000031D002DF4D131783A2932D002A83146C7
:1008F00001F024F902A801F065F9B8B102A801F0ED
:100900006BF90346002B21D01949E01C41F8243033
:1009100002E0FFF7A3FF012005B0F0BDFFF79EFF47
:100920002046F9E7FFF79AFF0220F5E702A801F059
:1009300041F9054650B1026802A8966801F030F905
:100940003A4601462846B0470346DBE74FF0FF3002
:10095000E2E73046074901AA03F0D4F9019BD1E749
:100960005C84000080840000648400006002001049
:1009700064020010C0840000022808B50BDD084B9B
:10098000C21E53F82200002143F8221028B1036848
:100990005A68904708BD002008BD4FF0FF3008BDE1
:1009A000640200100228F8B50D46174628DC1D49E0
:1009B0000A68002A2DD00FB32C46EE1914F8011B3B
:1009C000ED43AB19184803F0010500F047FFB442AE
:1009D00014D035B114F8011B134800F03FFFB442A6
:1009E0000CD0254615F8011B0F4800F037FF617841
:1009F0000D486C1C00F032FFB442F2D13846F8BD0D
:100A00000A4B033853F8200040B103681B6898472D
:100A1000F8BDFFF723FF002FCED1EFE74FF0FF30F7
:100A2000F8BD00BF640300109403001064020010BE
:100A3000022810B50C460ADD0A4B033853F8200093
:100A400060B103689B6898470146084610BD064898
:100A500000F0FEFE01212070084610BD4FF0FF316E
:100A6000F3E700BF6402001094030010022808B5E9
:100A700008DD074B033853F8200028B103681B69D1
:100A8000984708BD002008BD4FF0FF3008BD00BFEB
:100A900064020010022808B504D84FF400504860E2
:100AA000002008BD02F004FC092303604FF0FF3072
:100AB00008BD00BF002070472DE9F0418E18B142FB
:100AC0000F46054630D003688A1B0C46D2435B6A4A
:100AD00014F8011B02F00108984701301ED0A6420D
:100AE0001FD0B8F1000F09D0296828464A6A14F8C7
:100AF000011B9047013011D0A64212D0286814F88B
:100B0000011B436A284698470130284606D02A68C8
:100B100014F8011B536A98470130EDD1E01BBDE882
:100B2000F081F01BBDE8F0810020BDE8F08100BF3E
:100B30002DE9F0418E18B1420F46054632D00368C8
:100B40008A1BD1439C6A01F00108A047431C3C4624
:100B500025D03C4604F8010BA6421DD0B8F1000F89
:100B600006D02B6828469A6A9047431C10D116E09D
:100B7000296828468B6A984784461CF1010128465B
:100B80000DD004F801CB2A68916A8847421C06D030
:100B900004F8010BA642EBD1F01BBDE8F081E01B8D
:100BA000BDE8F0810020BDE8F08100BF0020704763
:100BB00000207047002070470020704748F2D04363
:100BC000C0F2000303F108023C3310B5044680E88C
:100BD0000C00406902F0C8FB204600F073FF20467D
:100BE00010BD00BFA0F10400FFF7E8BF10B5044638
:100BF000FFF7E4FF204601F0DDF8204610BD00BFFE
:100C0000A0F10400FFF7F2BF10B584B0044600F075
:100C10007FFF48F2D043C0F2000303F1080048F21E
:100C2000C0413C3384E809002246C0F2000101A81B
:100C300003F044F848F22451C0F2000101A802F088
:100C40004FFD0021606102F09FFF204604B010BDFF
:100C50000EB430B582B005AB53F8045B044640696E
:100C6000019302F02DFC60692946019A03F060FDB2
:100C700002B0BDE8304003B0704700BF034B10B571
:100C80000446036000F066F8204610BD6085000051
:100C90004368016910B5C918044600F053F804F11F
:100CA0001400BDE81040FFF7E3BC00BF054B10B5D2
:100CB0000446036000F04EF8204601F07BF8204621
:100CC00010BD00BF6085000038B50D46044600F039
:100CD0003DF8256100F0CCFD41192046BDE83840C3
:100CE00000F030B81430FFF7C3BC00BF034B10B5A1
:100CF0000446036000F02EF8204610BD6085000019
:100D0000054B10B50446036000F024F8204601F0BE
:100D100051F8204610BD00BF6085000008B503688B
:100D20009968884708BD00BF054B10B504460360AD
:100D300040F61D50C0F2000000F0FEFD204610BD40
:100D4000B88500000246043000F00ABE043000F00E
:100D500031BE00BF034B10B504460360FFF7F6FF3A
:100D6000204610BDB885000010B50446FFF7F2FF1D
:100D7000204601F01FF8204610BD00BF00B54CF220
:100D8000320199B06846C2F20901012200F056F81A
:100D90004CF2340106A8C2F20901012200F04EF81B
:100DA0004CF235010CA8C2F20901012200F046F80C
:100DB0004CF2370112A8C2F20901012200F03EF8FC
:100DC000019A039B0A991A600798109B08600D9A74
:100DD00096201A601399159A1160FFF72BFC019861
:100DE000049B099A186007990F9B11600D98169A39
:100DF0001860139996201160FFF71CFCE0E700BF14
:100E000010B50021044604F01F0400F00BFA012085
:100E100000FA04F010BD00BF31B9836841681A6858
:100E200022EA010018607047012900D070478368EA
:100E30004268196841EA020018607047F8B54B1C17
:100E40000D46044616461DD021600846FFF7D8FF20
:100E500025F01F0303F11C0103F1180703F114022D
:100E600060602161E7606261A36020463146FFF760
:100E7000D3FF2EB928460321BDE8F84000F0F4B9AD
:100E8000012E00D0F8BD28460221BDE8F84000F050
:100E9000EBB900BF026842F21073916008219161C2
:100EA00004E01168090705D4013B0CD01068013B30
:100EB0000007F6D55068402807D05168182904D09B
:100EC0005268282A01D0012070470020704700BFD7
:100ED00002B302680420906108239361106803073D
:100EE0000DD448F2A063C0F2010304E010680007CB
:100EF00005D4013B03D01068013B0007F6D55068CC
:100F000050280BD05368B3F1580018BF01209268E5
:100F10000A707047026804231360DDE70020F6E7DB
:100F2000F8B50D46064632492846144600F0ACFD99
:100F300030490746204600F0A7FD0146384600F03C
:100F40008BFD421C0346306049D04FF44042C4F24E
:100F50000502904238D00020C4F20A0083424FF4C8
:100F6000404C28D0C4F2010C634519D0224942F606
:100F7000635E0A68C0F23E5E100AAEFB00018A0999
:100F80005A611A613C229A614022284618491A6027
:100F900000F03CFD17492046BDE8F84000F036BDA2
:100FA0004FF4404EC4F20F0EDEF8C41041F0800240
:100FB000CEF8C420DAE7C4F20F0CDCF8C40040F02D
:100FC0008061CCF8C410D1E74FF4404CC4F20F0C50
:100FD000DCF8C42042F40020CCF8C400C6E7074C7B
:100FE00007492568E86802F085FB0120FFF7FAFA57
:100FF000DC85000030860000CC00001034010010B9
:101000001886000002683C23242093611060116858
:101010000B070DD448F2A063C0F2010304E011688D
:10102000080705D4013B03D01068013B0107F6D542
:10103000506820210828916103D0103818BF012082
:1010400070470020704700BF40F2CC03C1F200039C
:101050001A68006893084900B3FBF1F2426102612B
:10106000704700BF2DE9F84304460D4616469946E1
:10107000FFF7C8FF50B121681020082308608B617A
:101080000A68D306FCD40120BDE8F883204645F069
:101090000101FFF7FFFE024600283AD109F1FF39AE
:1010A000B9F1000FD8BF01463FDD09F1FF332046FB
:1010B000314603F00107FFF70BFF024600BB012595
:1010C0004D4531D06FB120467119FFF701FFB8B916
:1010D00002254D4505D127E0FFF7FAFE80B94D45C1
:1010E00022D0711900222046FFF7F2FE05F1010817
:1010F0000746023506EB080120463A46002FEBD0A2
:10110000226810200821106091611368D906FCD470
:10111000B9E721681020082308608B610A68D006AF
:10112000FCD40120BDE8F88329462046711801222D
:10113000FFF7CEFE60B9089A3AB121681020082363
:1011400008608B610A68D006FCD40020BDE8F883F3
:1011500021681020082308608B610A68D306FCD43C
:1011600091E700BFF8B504460E4615461F46FFF747
:1011700049FF48B12068102108220160826103689C
:10118000D906FCD40120F8BD204606F0FE01FFF789
:1011900081FE002833D1002F24DDEF19EB43DA194B
:1011A000204615F8011B02F00106FFF773FE002828
:1011B0002FD1BD4216D036B1204615F8011BFFF7DE
:1011C00069FE68B125E02E4616F8011B2046FFF7A0
:1011D00061FEF0B969782046751CFFF75BFEC0B967
:1011E000BD42F0D1206806990823836129B11022FD
:1011F000026083610368D906FCD40020F8BD216831
:101200001020082208608A610B68DB06FCD40120EC
:10121000F8BD21681020082208608A610B68D80692
:10122000FCD4AFE7431C10B41BD000F16040A0F524
:101230001C2404F00F035800032202FA00FC01FAF8
:1012400000F14FF440432009C4F2020353F8204058
:1012500024EA0C0243F8202053F82020114343F8DD
:10126000201010BC704700BF421C70B432D000F197
:101270006040A0F51C2000F01F05C1F3800404FAB3
:1012800005FC42094FF44043C4F202031A3253F8FA
:10129000226026EA0C0543F8225053F8226046EA01
:1012A0000C0543F82250ACB900F00F04620003258E
:1012B00005FA02F501FA02FC0009103053F820107B
:1012C00021EA050443F8204053F820404CEA040288
:1012D00043F8202070BC70474EF6F053CEF2000366
:1012E000186800F0010070472DE9F04F00230468F2
:1012F000C4F201038BB09C42099000F0FB8040F3E4
:10130000D9804FF4004CC4F2090C64454FF44043BB
:1013100000F0E180C4F209039C4240F0D1804FF418
:101320004040C4F20F00D0F8AC2122F44023C0F8B2
:10133000AC31D0F8AC2142F48023C0F8AC31804805
:101340000A01036808930898B3FBF2FC02FB1C0235
:101350001FFA8CF30793002A00F0BB800846590857
:10136000029101F07FFD029A834607989042C0F0F7
:10137000B080079F01240021DA4603970594049169
:101380004FF0010909F101025FFA82F90020B9F179
:10139000100F0690089F61D0029801F05FFD01F0E8
:1013A00041F900230022C4F2300301F08FF9CDE9A6
:1013B00000010126384601F051FD01F033F90446E1
:1013C00030460D4601F04AFD8046484601F046FD94
:1013D0000146404601F04EFE4FF07E5101F08EFC7A
:1013E00001F020F902460B46DDE9000101F06EF93B
:1013F00002460B462046294601F092FA01F028FCED
:101400000146584601F078FC594601F033FE01F0E0
:1014100009F906F0BFFF01F01BFC5146044601F03C
:1014200013FF80B1204601F0FDF843A3D3E9002368
:1014300001F0BEFB029AA246CDF8149004960392E6
:1014400008B1012306930136F6B24E45B2D109F137
:1014500001025FFA82F9B9F1100F9DD1029B079842
:101460005C1CA1B28842029102D3069A002A87D05E
:10147000049B059C099A039843EA04111468CBB2B3
:10148000079094F80CC007994CF080022273099CD5
:10149000080A2268099C10712068C9B2017022688C
:1014A00082F828302368197B01F07F0018730BB095
:1014B000BDE8F08F4FF44040C4F2000084422AD0CF
:1014C000204D21492E68F06802F014F90120FFF741
:1014D00089F81023D5E7C4F20F03D3F8AC0120F448
:1014E0004032C3F8AC21D3F8AC0140F48032C3F8E9
:1014F000AC2124E74FF4404CC4F20F0CDCF8A831C7
:1015000023F44070CCF8A801DCF8A82142F48073E1
:10151000CCF8A83113E74FF4404CC4F20F0CDCF8C0
:10152000A82122F0C003CCF8A831DCF8A80140F0D3
:101530004002CCF8A82102E7FCA9F1D24D62503F4D
:10154000CC00001034010010D8860000AFF30080FA
:1015500038B54C1F032C0D462AD8042A13D8DFE8CF
:1015600002F01B1E2124030003220121013B012B59
:1015700028D844EA830444EAC10C00684CEA021209
:10158000D1B2017338BD1049104D2C68E06802F0EB
:10159000B1F80120FFF726F800221146E6E7002205
:1015A0000121E3E701221146E0E702220121DDE704
:1015B000064B074918682A46C06802F09BF80120CC
:1015C000FFF710F80349DFE724870000340100101B
:1015D000E4860000448700002DE9F8430F460546E5
:1015E0008D493846164600F04FFA8C49044630467D
:1015F00000F04AFA0146204600F02EFA431C044649
:1016000000F001810023C4F20103984228606CD0ED
:1016100034D94FF40042C4F20902904200F0BD8078
:101620004FF44041C4F2090188422DD14FF4404C9F
:10163000C4F20F0CDCF8C4004FF0010840F0007257
:10164000CCF8C42084F80880296800244C6028461F
:101650004FF41651FFF748FE28462246434608211C
:10166000FFF776FF38466C4900F0D0F930466B49F9
:1016700000F0CCF903236B60BDE8F8834FF44040E1
:10168000C4F20000844258D04FF0010884F808806A
:101690002B684FF000094FF41651C3F80490284608
:1016A000FFF722FE4A46434608212846FFF750FF2F
:1016B0003846594900F0AAF93046584900F0A6F9D1
:1016C000CC46C4F2010C644533D000F28E804FF456
:1016D0004040C4F20000844253D04FF4404EC4F264
:1016E000000E74454FD0BDE8F8834FF4404CC4F26F
:1016F0000F0CDCF8C4004FF0010840F01002CCF8E9
:10170000C42084F80880296800244C6028464FF4DF
:101710001651FFF7E9FD2846224643460821FFF708
:1017200017FF38463C4900F071F930463B4900F05C
:101730006DF901236B60BDE8F8834FF44042C4F2B9
:101740000F02D2F8C4104FF0010841F00803C2F8AC
:10175000C43084F808802868002444604FF416518F
:101760002846FFF7C1FD2846224643460821FFF7D9
:10177000EFFE3846284900F049F93046274900F085
:1017800045F900246C60264B26480124294608228E
:101790001C60BDE8F84302F09FB94FF4404EC4F21C
:1017A0000F0EDEF8C4004FF0010840F08072CEF852
:1017B000C42084F80880296800244C6028464FF42F
:1017C0001651FFF791FD2846224643460821FFF7B0
:1017D000BFFE3846104900F019F930460F4900F0B5
:1017E00015F902236B60BDE8F8834FF40042C4F2A0
:1017F00009029442F5D04FF44041C4F209018C42F1
:101800007FF46BAF36E7084D08492E68F06801F0A9
:1018100071FF0120FEF7E6FE808700006C86000065
:10182000640300109403001034010010608700006E
:1018300010B440F2683340F278344068C1F20004DA
:10184000C1F20003216043F8202010BC704700BFA4
:101850000268137DD907FCD5107870470268137DA4
:1018600003F02000C3B2002BF9D0C9B21170704749
:10187000154930B40A68FAB94FF44040C4F20F0079
:10188000D0F8C45001244FF480430C60C4F2090323
:101890000E4945F40005C0F8C4501A6708684DF6B3
:1018A000836C8208C4F21B3CACFB0201880C421E14
:1018B00002215960DA605C604FF48043C4F209038E
:1018C000986830BC704700BF7C030010CC0000104B
:1018D000F8B5174D4FF480432C68C4F20903012278
:1018E0001A60E4B1134F06E0A16860683C682960A3
:1018F000A0472C689CB12668FFF7BAFF301A002871
:10190000F2DD21684FF4804CC4F2090CCCF81810B9
:10191000DCF8143043F00102CCF81420F8BD4FF489
:101920008040C4F20900436923F001024261F8BD1E
:10193000800300108403001008B540F28433C1F224
:10194000000341F6D1011860C0F200010420FEF747
:10195000AFFD4FF46140CEF200001022026008BDDE
:1019600010B472B6124B01601C6842608CB12268E0
:101970008A1A002A05DC0CE01A688A1A002A03DD9C
:101980001C46A368002BF7D1A060836062B610BC30
:1019900070474FF4804CC4F2090C1860CCF8181052
:1019A000DCF81410234641F00102CCF81420ECE7D7
:1019B0008003001072B6144B1A68824211D04AB1EB
:1019C0009168814208D029B18B68834205D01946BD
:1019D0000029F9D162B6704711468068886062B606
:1019E000704792681A60002AF4D011684FF4804C56
:1019F000C4F2090CCCF81810DCF8143043F00100E4
:101A0000CCF8140062B6704780030010431C10B578
:101A1000044613D00B68581C04D110E051F80C3F59
:101A20005A1C0CD09C42F9D120468968FFF7FAFB7A
:101A300020460221BDE81040FFF716BC10BD044847
:101A400004490268D06801F055FE0120FEF7CAFD86
:101A500034010010EC870000884208B503D0421C16
:101A600002D0013102D108BD084608BD044B05492A
:101A70001868C06801F03EFE0120FEF7B3FD00BF0C
:101A8000340100100088000008B5431C0BD00B681F
:101A90005A1C04D108E051F80C3F5A1C04D098425B
:101AA000F9D1486808BD08BD044805490268D068F6
:101AB00001F020FE0120FEF795FD00BF340100106B
:101AC0001488000048F66803C0F2000310B503F163
:101AD00034020446083340F8042F236000F086F8EF
:101AE0002046FEF777FE204610BD00BFA0F104009F
:101AF000FFF7E8BF10B50446FFF7E4FF204600F00B
:101B000059F9204610BD00BFA0F10400FFF7F2BF55
:101B1000094B10B50022044640F8043B00F09CF845
:101B200048F66803C0F2000303F10802343384E886
:101B30000C00204610BD00BF9884000070B5002244
:101B4000026042600B7804462F2B01D0204670BD06
:101B500048780028FAD04E1C26604D782F2D1BD0D7
:101B60006DB18D1C114600E0A2B125602A782B468C
:101B7000013101352F2AF7D10D46581C2060294626
:101B8000304600F079F83046294600F075F860607C
:101B9000204670BD0D46F2E733461546EDE700BF1F
:101BA0000068704708B5406800F086F8431E584248
:101BB000584108BD10B50446FFF7F4FF00B1606856
:101BC00010BD00BF08B5406800F076F8D0F1010004
:101BD00038BF002008BD00BF10B50446FFF7F2FF74
:101BE00010B1606800B1043810BD00BF094A8368B5
:101BF000026053B108490A68824201D106E01A46E0
:101C000053689842FBD141685160704743680B604C
:101C1000704700BFC8880000880300100C4A836822
:101C200010B50446026053B10A480268944201D1DB
:101C30000AE00A4651688C42FBD163685360204633
:101C400000F0B8F8204610BD61680160F7E700BFFA
:101C5000C888000088030010054B81600360027390
:101C600021B104490A6808604260704741607047CA
:101C7000C8880000880300100E4B70B51C6806462B
:101C80000D4614B912E0646884B1A36831462A464F
:101C90001846002BF7D002F0B9F80028F3D1A0685D
:101CA00002F0ACF8A842EED1204670BD00242046D8
:101CB00070BD00BF88030010007B70472DE9F04F16
:101CC0000E4685B019468346904699460E9D109F54
:101CD000119C00F02DFB824680B1002E256084F817
:101CE000048006DBAD19AF4214BF01270627A77198
:101CF0000CE0B31C0AD10120A07107E0BD4207D15E
:101D000058460F9900F014FB80B901E0002010E064
:101D1000DBF808000F9A036801920095029703947C
:101D2000DC69314642464B46A04702E084F8058014
:101D3000504605B0BDE8F08F034B10B50446036074
:101D400000F06AF8204610BDE088000010B5044697
:101D5000FFF7F2FF204600F02DF8204610BDF8B541
:101D600004460F4616461D4600F049F838B9A068EB
:101D7000394604683246A4692B46A047F8BD0120C5
:101D8000F8BD2DE9F341089C074694428846164663
:101D90001D4605D1194600F0CBFA08B1062007E030
:101DA000B8684146036800941C6A32462B46A04737
:101DB000BDE8FC8108B101F02FBE70477FB5154624
:101DC0000268002410230293966900948DF8044061
:101DD00003942A686B46B0479DF8040000F00601A2
:101DE000062903D1009B01202B6000E0204604B0AF
:101DF00070BD0098904214BF01200620704738B58E
:101E000015461C4600F094FA28B1062008232071DC
:101E10002560E360012038BD034B10B50446036024
:101E200000F070FA204610BD4889000010B5044645
:101E3000FFF7F2FF2046FFF7BDFF204610BD2DE95A
:101E4000F041069E1546089A074696429846099C18
:101E500003D1079900F06CFA48B93846414600F0C2
:101E600067FA28B1012326602571A37100E065712E
:101E70000020BDE8F081F8B505460C4616461F4621
:101E800000F056FA40B9032F07D8236820465B6953
:101E9000294632469847F8BD0120F8BD034608465A
:101EA000194601F0F9B90000034B10B50446036070
:101EB000FFF7B2FF204610BDE089000010B50446D0
:101EC000FFF7F2FF2046FFF775FF204610BD2DE912
:101ED000F347DDF8289005464A450F4616469846D2
:101EE00005D1194600F024FA08B1062026E0EC6876
:101EF00004F1FF3A0CB305EBC404E06882071AD57D
:101F0000021210F0010403D0FB1C14D033689A585D
:101F100005EBCA010869B2180368CDF80090D3F840
:101F200020C039464346E047032804D934B140F085
:101F30000100C0B202E05446DAE70120BDE8FC87A8
:101F40002DE9F04F87B00546019116461C46FFF774
:101F500056FF00287DD1A768EB68FA0603F1020856
:101F600048BFAF6803F1FF3905EBC808B9F1FF3F7F
:101F700068D005EBC90250690021C0F3400A029104
:101F80008DF80C100497059100F0010BBAF1000FC9
:101F900001D1FB0751D53EB10112BBF1000F01D0B9
:101FA00033685958721800E0324658F8080C019905
:101FB0000368D3F818C002ABE04700283DD0059A6B
:101FC000082A05D1BBF1000F02D058F8080C059083
:101FD0009DF80C10032902D9BAF1000F3BD0E1683B
:101FE000A9B90DF1180E1EE90F0084E80F0023793E
:101FF000032B2ED9980703D5AA6812F0010F04E02D
:10200000D90726D5A86810F0020F16D121E0206864
:10201000029A904202D00022226018E038B9059856
:10202000082814D0082912D000F082F978B1237959
:102030009DF80C1041EA0300207109F1FF39A8F165
:10204000080893E72079003018BF012008E002213A
:102050002171012004E021F002038DF80C30BEE76D
:1020600007B0BDE8F08F2DE9F04F8FB01B9C9A466A
:10207000A3688846D90648BF8368DDF86890189E33
:1020800048BFA3604E458346059207D1199900F0D9
:102090004FF918B1059E667100272FE15846514649
:1020A00000F046F9B8B11898059EB8F1000F20600D
:1020B00026710ADB189EB044C14514BF4FF00109D8
:1020C0004FF0060984F80690E6E718F1020FE3D115
:1020D0000122A271E0E7B8F1000FA6BFC8EB090624
:1020E000069606900027012109970791DBF80C302E
:1020F0005A1E0892002B00F0B0800BEBC303DB6884
:10210000A56800261912DA070B968DF830608DF855
:1021100031608DF832600D9506D50598189E40F017
:1021200001023068415800E0059A189E7118069E19
:1021300036B1B142079E94BF00200120B0427BD04F
:102140009B0707D418F1020F02D1AE0700F083807D
:1021500002F0FD02089D0BAE0BEBC5031869534658
:1021600005680091199903960191CDF80890ED69E1
:102170004146A84763799DF831209DF832601343AA
:10218000062E637101D0022E06D10B9F9DF83010F0
:1021900027602171A6715CE0226877B96AB90B9F4C
:1021A0009DF8301027602171002F40D0002B3ED0C9
:1021B000DBF80830DA073AD44BE05AB10B998A427F
:1021C00006D122799DF8301041EA020020712DE0FD
:1021D00019B910B90B9848B347B3032BA57904D9A3
:1021E000DB0742D5A36898073FD54DB9032E48D8E1
:1021F000B8F1000F59DB424491450CBF062501257B
:10220000002E45D085EA0601CAB2032A17D9032E4B
:1022100006D90B9D9DF83030256023713546002787
:10222000A907A5712BD415F0010012D038466279A8
:10223000042A0ED007460EE0012609960BE0354031
:10224000EDB24FF00007032D276015D90220A071D1
:102250000120074652E0089B4AE7099E002E4DD018
:10226000079E002E4AD0079340E7002D08BF0125A6
:10227000002E08BF0126C5E70120A071D7E7002086
:10228000E7E7F1070DD5DBF80850AB0709D5AFE755
:10229000032D1AD9EE0706D5DBF80860B00702D582
:1022A00013E00125AEE70126ACE718F1020F0AD0D2
:1022B000DAF80010CDF800900D6A50464146199B9F
:1022C000A84705469CE701259AE7B8F1000F0B9A4D
:1022D00006DB02EB0803994514BF0126062691E7A9
:1022E00018F1020FDFD0DAF80000CDF80090066A8E
:1022F00041465046199BB047064683E738460FB023
:10230000BDE8F08F014B0360704700BF288A0000D2
:10231000002070470020704700207047034B10B525
:1023200004460360FFF746FD204610BD288A0000E2
:10233000814208B50ED0406803782A2B01D10020D5
:1023400008BD49680A782A2A08BF013101F04BFD0F
:102350000028F4D1012008BDFFF7EABF81F0004159
:1023600002E000BF83F0004330B54FEA41044FEA7A
:10237000430594EA050F08BF90EA020F1FBF54EA15
:10238000000C55EA020C7FEA645C7FEA655C00F0B1
:10239000E2804FEA5454D4EB5555B8BF6D420CDD82
:1023A0002C4480EA020281EA030382EA000083EA05
:1023B000010180EA020281EA0303362D88BF30BDA5
:1023C00011F0004F4FEA01314FF4801C4CEA1131FB
:1023D00002D0404261EB410113F0004F4FEA03335A
:1023E0004CEA133302D0524263EB430394EA050FE5
:1023F00000F0A780A4F10104D5F1200E0DDB02FA54
:102400000EFC22FA05F2801841F1000103FA0EF2E7
:10241000801843FA05F359410EE0A5F120050EF1AD
:10242000200E012A03FA0EFC28BF4CF0020C43FADE
:1024300005F3C01851EBE37101F0004507D54FF0EB
:10244000000EDCF1000C7EEB00006EEB0101B1F53B
:10245000801F1BD3B1F5001F0CD349085FEA300081
:102460004FEA3C0C04F101044FEA445212F5800F8C
:1024700080F09A80BCF1004F08BF5FEA500C50F129
:10248000000041EB045141EA050130BD5FEA4C0C0C
:10249000404141EB010111F4801FA4F10104E9D195
:1024A00091F0000F04BF01460020B1FA81F308BF8C
:1024B0002033A3F10B03B3F120020CDA0C3208DD58
:1024C00002F1140CC2F10C0201FA0CF021FA02F133
:1024D0000CE002F11402D8BFC2F1200C01FA02F1A3
:1024E00020FA0CFCDCBF41EA0C019040E41AA2BFC8
:1024F00001EB0451294330BD6FEA04041F3C1CDA90
:102500000C340EDC04F11404C4F1200220FA04F0AF
:1025100001FA02F340EA030021FA04F345EA030159
:1025200030BDC4F10C04C4F1200220FA02F001FA1B
:1025300004F340EA0300294630BD21FA04F029469D
:1025400030BD94F0000F83F4801306BF81F4801136
:102550000134013D4EE77FEA645C18BF7FEA655CA9
:1025600029D094EA050F08BF90EA020F05D054EA7B
:10257000000C04BF1946104630BD91EA030F1EBF80
:102580000021002030BD5FEA545C05D14000494184
:1025900028BF41F0004130BD14F580043CBF01F577
:1025A000801130BD01F0004545F0FE4141F470015D
:1025B0004FF0000030BD7FEA645C1ABF1946104638
:1025C0007FEA655C1CBF0B46024650EA013406BF39
:1025D00052EA033591EA030F41F4002130BD00BFF8
:1025E00090F0000F04BF0021704730B54FF48064B5
:1025F00004F132044FF000054FF0000150E700BF36
:1026000090F0000F04BF0021704730B54FF4806494
:1026100004F1320410F0004548BF40424FF0000181
:102620003EE700BF42004FEAE2014FEA31014FEAC4
:1026300002701FBF12F07F4393F07F4F81F0605113
:10264000704792F0000F14BF93F07F4F704730B582
:102650004FF4607401F0004521F0004120E700BF15
:1026600050EA010208BF704730B54FF000050AE09C
:1026700050EA010208BF704730B511F0004502D59D
:10268000404261EB41014FF4806404F132045FEA9F
:10269000915C3FF4DCAE4FF003025FEADC0C18BF44
:1026A00003325FEADC0C18BF033202EBDC02C2F13A
:1026B000200300FA03FC20FA02F001FA03FE40EACC
:1026C0000E0021FA02F11444C1E600BF70B54FF0CC
:1026D000FF0C4CF4E06C1CEA11541DBF1CEA1355AE
:1026E00094EA0C0F95EA0C0F00F0DEF82C4481EA16
:1026F000030621EA4C5123EA4C5350EA013518BF36
:1027000052EA033541F4801143F4801338D0A0FB22
:1027100002CE4FF00005E1FB02E506F00042E0FBCF
:1027200003E54FF00006E1FB03569CF0000F18BFD5
:102730004EF0010EA4F1FF04B6F5007F64F540747D
:1027400004D25FEA4E0E6D4146EB060642EAC62110
:1027500041EA55514FEAC52040EA5E504FEACE2E7D
:10276000B4F1FD0C88BFBCF5E06F1ED8BEF1004F80
:1027700008BF5FEA500E50F1000041EB045170BDFC
:1027800006F0004646EA010140EA020081EA030140
:10279000B4EB5C04C2BFD4EB0C0541EA045170BD3C
:1027A00041F480114FF0000E013C00F3AB8014F1B6
:1027B000360FDEBF002001F0004170BDC4F10004FF
:1027C000203C35DA0C341BDC04F11404C4F1200580
:1027D00000FA05F320FA04F001FA05F240EA0200DB
:1027E00001F0004221F0004110EBD37021FA04F611
:1027F00042EB06015EEA430E08BF20EAD37070BDCB
:10280000C4F10C04C4F1200500FA04F320FA05F029
:1028100001FA04F240EA020001F0004110EBD3702B
:1028200041F100015EEA430E08BF20EAD37070BD9B
:10283000C4F1200500FA05F24EEA020E20FA04F374
:1028400001FA05F243EA020321FA04F001F0004123
:1028500021FA04F220EA020000EBD3705EEA430E94
:1028600008BF20EAD37070BD94F0000F0FD101F0C3
:102870000046400041EB010111F4801F08BF013CFC
:10288000F7D041EA060195F0000F18BF704703F03A
:102890000046520043EB030313F4801F08BF013DC1
:1028A000F7D043EA0603704794EA0C0F0CEA13557D
:1028B00018BF95EA0C0F0CD050EA410618BF52EA37
:1028C0004306D1D181EA030101F000414FF000003D
:1028D00070BD50EA410606BF1046194652EA43064B
:1028E00019D094EA0C0F02D150EA013613D195EABF
:1028F0000C0F05D152EA03361CBF104619460AD107
:1029000081EA030101F0004141F0FE4141F4700110
:102910004FF0000070BD41F0FE4141F4780170BD00
:1029200070B54FF0FF0C4CF4E06C1CEA11541DBF65
:102930001CEA135594EA0C0F95EA0C0F00F0A7F867
:10294000A4EB050481EA030E52EA03354FEA013194
:1029500000F088804FEA03334FF0805545EA1313A7
:1029600043EA12634FEA022245EA111545EA10656F
:102970004FEA00260EF000419D4208BF964244F106
:10298000FD0404F5407402D25B084FEA3202B61A25
:1029900065EB03055B084FEA32024FF480104FF4F9
:1029A000002CB6EB020E75EB030E22BFB61A75466D
:1029B00040EA0C005B084FEA3202B6EB020E75EB00
:1029C000030E22BFB61A754640EA5C005B084FEA68
:1029D0003202B6EB020E75EB030E22BFB61A754635
:1029E00040EA9C005B084FEA3202B6EB020E75EB40
:1029F000030E22BFB61A754640EADC0055EA060E01
:102A000018D04FEA051545EA16754FEA06164FEA43
:102A1000C30343EA52734FEAC2025FEA1C1CC0D1EF
:102A200011F4801F0BD141EA00014FF000004FF07C
:102A3000004CB6E711F4801F04BF01430020B4F13D
:102A4000FD0C88BFBCF5E06F3FF6AFAEB5EB030CF5
:102A500004BFB6EB020C5FEA500C50F1000041EBF2
:102A6000045170BD0EF0004E4EEA113114EB5C04BF
:102A7000C2BFD4EB0C0541EA045170BD41F4801192
:102A80004FF0000E013C90E645EA060E8DE60CEA9A
:102A9000135594EA0C0F08BF95EA0C0F3FF43BAFB7
:102AA00094EA0C0F0AD150EA01347FF434AF95EA6E
:102AB0000C0F7FF425AF104619462CE795EA0C0F52
:102AC00006D152EA03353FF4FDAE1046194622E71F
:102AD00050EA410618BF52EA43067FF4C5AE50EAF9
:102AE00041047FF40DAF52EA43057FF4EBAE12E7E9
:102AF0004FF0FF3C06E000BF4FF0010C02E000BFCA
:102B00004FF0010C4DF804CD4FEA410C7FEA6C5CAC
:102B10004FEA430C18BF7FEA6C5C1BD001B050EA4F
:102B2000410C0CBF52EA430C91EA030F02BF90EA3A
:102B3000020F0020704710F1000F91EA030F58BFF9
:102B4000994208BF90422CBFD8176FEAE37040F05B
:102B5000010070474FEA410C7FEA6C5C02D150EAF9
:102B6000013C07D14FEA430C7FEA6C5CD6D152EAB4
:102B7000033CD3D05DF8040B704700BF8446104679
:102B800062468C461946634600E000BF01B5FFF778
:102B9000B7FF002848BF10F1000F01BD4DF808ED48
:102BA000FFF7F4FF0CBF012000205DF808FB00BF19
:102BB0004DF808EDFFF7EAFF34BF012000205DF873
:102BC00008FB00BF4DF808EDFFF7E0FF94BF0120C0
:102BD00000205DF808FB00BF4DF808EDFFF7CEFFC1
:102BE00094BF012000205DF808FB00BF4DF808ED00
:102BF000FFF7C4FF34BF012000205DF808FB00BFD1
:102C00004FEA410212F5001215D211D56FF4787314
:102C1000B3EB625212D94FEAC12343F0004343EAB7
:102C2000505311F0004F23FA02F018BF4042704792
:102C30004FF00000704750EA013005D111F000401C
:102C400008BF6FF0004070474FF00000704700BFB2
:102C50004FEA4102B2F1E04324BFB3F5001CDCF1BE
:102C6000FE5C0DD901F0004C4FEAC0024CEA5070F6
:102C7000B2F1004F40EB830008BF20F00100704725
:102C800011F0804F21D113F13872BCBF01F0004028
:102C9000704741F480114FEA5252C2F11802C2F15A
:102CA000200C10FA0CF320FA02F018BF40F00100DB
:102CB0004FEAC1234FEAD32303FA0CFC40EA0C008D
:102CC00023FA02F34FEA4303CCE77FEA625307D1CA
:102CD00050EA01331EBF4FF0FE4040F44000704701
:102CE00001F0004040F0FE4040F40000704700BF9B
:102CF00080F0004002E000BF81F0004142001FBFB1
:102D00005FEA410392EA030F7FEA226C7FEA236CB9
:102D10006AD04FEA1262D2EB1363C1BFD2184140AE
:102D200048404140B8BF5B42192B88BF704710F044
:102D3000004F40F4000020F07F4018BF404211F0E7
:102D4000004F41F4000121F07F4118BF494292EA4F
:102D5000030F3FD0A2F1010241FA03FC10EB0C007B
:102D6000C3F1200301FA03F100F0004302D5494208
:102D700060EB4000B0F5000F13D3B0F1807F06D3B5
:102D800040084FEA310102F10102FE2A51D2B1F1AD
:102D9000004F40EBC25008BF20F0010040EA0300A2
:102DA0007047490040EB000010F4000FA2F101024F
:102DB000EDD1B0FA80FCACF1080CB2EB0C0200FAD9
:102DC0000CF0AABF00EBC25052421843BCBFD04027
:102DD0001843704792F0000F81F4000106BF80F4A1
:102DE00000000132013BB5E74FEA41037FEA226C64
:102DF00018BF7FEA236C21D092EA030F04D092F02F
:102E0000000F08BF0846704790EA010F1CBF002062
:102E1000704712F07F4F04D1400028BF40F00040BF
:102E2000704712F100723CBF00F50000704700F0DF
:102E3000004343F0FE4040F4000070477FEA226206
:102E400016BF08467FEA23630146420206BF5FEAD7
:102E5000412390EA010F40F4800070474FF00003D7
:102E600004E000BF10F0004348BF40425FEA000C9E
:102E700008BF704743F0964301464FF000001CE046
:102E800050EA010208BF70474FF000030AE000BF9C
:102E900050EA010208BF704711F0004302D54042DA
:102EA00061EB41015FEA010C02BF8446014600204C
:102EB00043F0B64308BFA3F18053A3F50003BCFA67
:102EC0008CF2083AA3EBC25310DB01FA02FC634414
:102ED00000FA02FCC2F12002BCF1004F20FA02F21B
:102EE00043EB020008BF20F00100704702F120020E
:102EF00001FA02FCC2F1200250EA4C0021FA02F26F
:102F000043EB020008BF20EADC7070474FF0FF0C73
:102F10001CEAD0521EBF1CEAD15392EA0C0F93EA6E
:102F20000C0F6FD01A4480EA010C400218BF5FEA10
:102F300041211ED04FF0006343EA501043EA511183
:102F4000A0FB01310CF00040B1F5000F3EBF49007D
:102F500041EAD3715B0040EA010062F17F02FD2A81
:102F60001DD8B3F1004F40EBC25008BF20F0010064
:102F7000704790F0000F0CF0004C08BF49024CEA7B
:102F8000502040EA51207F3AC2BFD2F1FF0340EA0D
:102F9000C250704740F400004FF00003013A5DDC7E
:102FA00012F1190FDCBF00F000407047C2F10002BF
:102FB000410021FA02F1C2F1200200FA02FC5FEAAC
:102FC000310040F1000053EA4C0308BF20EADC70F6
:102FD000704792F0000F00F0004C02BF400010F468
:102FE000000F013AF9D040EA0C0093F0000F01F015
:102FF000004C02BF490011F4000F013BF9D041EA37
:103000000C018FE70CEAD15392EA0C0F18BF93EA38
:103010000C0F0AD030F0004C18BF31F0004CD8D162
:1030200080EA010000F00040704790F0000F17BFE9
:1030300090F0004F084691F0000F91F0004F14D02F
:1030400092EA0C0F01D142020FD193EA0C0F03D187
:103050004B0218BF084608D180EA010000F000408A
:1030600040F0FE4040F40000704740F0FE4040F465
:10307000400070474FF0FF0C1CEAD0521EBF1CEA04
:10308000D15392EA0C0F93EA0C0F69D0A2EB030222
:1030900080EA010C49024FEA402037D04FF08053BC
:1030A00043EA111143EA10130CF000408B4238BF81
:1030B0005B0042F17D024FF4000C8B4224BF5B1A8F
:1030C00040EA0C00B3EB510F24BFA3EB510340EADD
:1030D0005C00B3EB910F24BFA3EB910340EA9C008B
:1030E000B3EBD10F24BFA3EBD10340EADC001B01FB
:1030F00018BF5FEA1C1CE0D1FD2A3FF650AF8B429F
:1031000040EBC25008BF20F0010070470CF0004CAB
:103110004CEA50207F32C2BFD2F1FF0340EAC250D6
:10312000704740F400004FF00003013A37E792F097
:10313000000F00F0004C02BF400010F4000F013AF5
:10314000F9D040EA0C0093F0000F01F0004C02BFF0
:10315000490011F4000F013BF9D041EA0C0195E759
:103160000CEAD15392EA0C0F08D142027FF47DAFF2
:1031700093EA0C0F7FF470AF084676E793EA0C0FE2
:1031800004D14B023FF44CAF08466EE730F0004CE0
:1031900018BF31F0004CCAD130F000427FF45CAF70
:1031A00031F000437FF43CAF5FE700BF4FF0FF3CDE
:1031B00006E000BF4FF0010C02E000BF4FF0010C31
:1031C0004DF804CD4FEA40024FEA41037FEA226CFA
:1031D00018BF7FEA236C11D001B052EA530C18BF1C
:1031E00090EA010F58BFB2EB030088BFC81738BF81
:1031F0006FEAE17018BF40F0010070477FEA226C6F
:1032000002D15FEA402C05D17FEA236CE4D15FEA6A
:10321000412CE1D05DF8040B704700BF844608469E
:103220006146FFE70FB5FFF7C9FF002848BF10F15F
:10323000000F0FBD4DF808EDFFF7F4FF0CBF0120A4
:1032400000205DF808FB00BF4DF808EDFFF7EAFF2E
:1032500034BF012000205DF808FB00BF4DF808EDE9
:10326000FFF7E0FF94BF012000205DF808FB00BFDE
:103270004DF808EDFFF7D2FF94BF012000205DF864
:1032800008FB00BF4DF808EDFFF7C8FF34BF012071
:1032900000205DF808FB00BF30B505460C4613461C
:1032A000022029462246BDE8304002F0E3BA000081
:1032B000014B1868704700BF3401001070B5054617
:1032C0000C46002947D000F0C9F925B1AB6913B904
:1032D000284600F05BF92148844201D16C6808E07F
:1032E0001F498C4201D1AC6803E01E4A944208BFDA
:1032F000EC68B4F90C605EB32846214600F03CF857
:10330000236B06463BB12846216A984736EA2006D9
:1033100028BF4FF0FF36A08900F080010AB21AB131
:103320002846216900F0F8F9616B41B104F14403CA
:10333000994202D0284600F0EFF900206063A16CAA
:1033400021B1284600F0E8F90021A1640022A28101
:1033500000F085F900E00E46304670BD408A00005E
:10336000608A0000808A0000024B01461868FFF75F
:10337000A5BF00BF340100100B692DE9F0410546DF
:103380000C46002B3BD018B1816909B900F0FEF85A
:103390004848844201D16C6808E0474A944201D110
:1033A000AC6803E0454B9C4208BFEC68A18931B38F
:1033B00001F0080002B2002A61D1626841F40060A5
:1033C000002AA08102DC236C002B18DDE66AB6B16E
:1033D00001F4805100200AB22F6828600AB1626DA2
:1033E00010E001232846216AB0470246013009D186
:1033F0002B683BB11D2B01D0162B1BD12F60002059
:10340000BDE8F081A68906F0040001B229B1636825
:10341000666BD21A0EB1206C121A216A0023E66A7A
:103420002846B047411C0DD12A685AB11D2A09D03F
:10343000162A07D0A1894FF0FF3041F04003A38145
:10344000BDE8F081A38900222169626003F4805203
:10345000216011B221B1421C01D12B6803B9606512
:10346000616B2F600029CAD004F14400814202D070
:10347000284600F051F900206063BDE8F08126691C
:10348000002EBCD0890723680CBF61690021C6EB00
:1034900003082660A160B8F1000FB0DDA76A2846D6
:1034A000216A32464346B8470028C3DD3618C0EBD0
:1034B0000808F0E7408A0000608A0000808A000067
:1034C000014620B904480549006800F001BA044BE0
:1034D0001868FFF751BF00BFA48A000079330000CD
:1034E00034010010F8B5074600F14C0494B1A5680A
:1034F0006668013E0CD4B5F90C303BB1B5F90E004D
:10350000431C03D038462946FFF736FF6835F0E7FD
:103510002468EBE7F8BD0000002310B50446036003
:103520004360836081814366C2810361436183613B
:103530001946082200F15C0000F0D7FA044805495A
:10354000054A064B24626062A162E262236310BDF9
:10355000593D00007F3D0000BB3D0000DF3D000005
:1035600070B568254D430E4605F10C0100F05CFA7C
:10357000044640B100F10C00002184E84200A06044
:103580002A4600F0B2FA204670BD000070B5856989
:103590000446002D22D1124B012683628661C56448
:1035A0000565456500F01EF86060204600F01AF8D9
:1035B000A060204600F016F80421E0602A4660680A
:1035C000FFF7AAFFA06809213246FFF7A5FFE068D0
:1035D00012210222BDE87040FFF79EBF70BD00BF00
:1035E000E5340000F8B51C4B07461E68B06910B9F9
:1035F0003046FFF7CBFF4C36B4687168013904D40C
:10360000B4F90C5085B16834F8E732680AB136680D
:10361000F2E738460421FFF7A3FF30600028F6D117
:103620000C243C60044615E04FF6FF730120A08196
:10363000E38165662560A560656025616561A561BA
:1036400004F15C002946082200F04FFA6563A56387
:10365000A564E5642046F8BDA48A00007047704761
:10366000F7B50F46114601AA054602F081FF06464E
:1036700008B900242AE02846FFF7B4FF04460028D2
:10368000F7D028463946019A4FF4DB7300F036FA3A
:10369000002806DA0025FFF7E1FFA581FFF7DFFF2D
:1036A000E7E7E081A6810A4B0A480B490B4A06F47A
:1036B000807636B224626362A062E16222632EB138
:1036C000284621460022022300F06AF82046FEBD6B
:1036D000593D00007F3D0000BB3D0000DF3D000084
:1036E0000A460349034608681946FFF7B9BF00BFF9
:1036F000340100100EB403B5014603AB054853F87E
:10370000042B0068019300F0FDFEBDE80C4003B0FF
:10371000704700BF3401001030B500293CD051F88B
:10372000042C0B1F1D49002AB8BF9B180A6812B948
:103730005A600B6030BD93420ED2196858189042FF
:1037400003D15A5889184268196014485A600360B6
:1037500030BD994203D80A4651680029F9D114684E
:1037600015199D420AD118682318D0188842136091
:1037700012D108681B1813604B680CE002D90C23A7
:10378000036030BD18681C188C4203D10C6849686E
:10379000001918605960536030BD00BF8C030010E1
:1037A0002DE9F0410C4690461E46054618B1836946
:1037B0000BB9FFF7EBFE4348844201D16C6808E087
:1037C00041498C4201D1AC6803E0404A944208BFB1
:1037D000EC68FFF743FFA78907F48473B3F5847F90
:1037E00003D128462146FFF7C7FDE76A1D20002FB9
:1037F00030D0012E05D0022E33D0002E31D016202D
:1038000028E021462846FFF7B7FDA18901F4805240
:1038100012B20AB1606D05E033462846216AB84706
:10382000431C18D0A68906F0040319B231B16668AA
:10383000636B801B5BB1216C401A08E006F0080244
:1038400016B226B1236813B121695A1A8018804430
:10385000002606E02860FFF702FF4FF0FF30BDE8CA
:10386000F081206918B92846214600F079F82846E9
:103870002146FFF781FD0028EDD12846216A424606
:103880003346B8470130E6D0616B41B104F14402E0
:10389000914202D02846FFF73FFF00256563A189CA
:1038A0002369002521F020002360A08129460822F9
:1038B000656004F15C0000F018F9FFF7D0FE2846BF
:1038C000BDE8F081408A0000608A0000808A000024
:1038D0002DE9F84380468946FFF7C0FE08F14C0405
:1038E000002694B1A5686768013F0CD4B5F90C3087
:1038F0003BB1B5F90E00431C03D040462946C847EA
:1039000006436835F0E72468EBE7FFF7A8FE30468A
:10391000BDE8F88338B50E4D0E4B0024E81A85102B
:10392000AC4205D00B4951F8242090470134F7E709
:1039300004F034FD0849094A541AA5100024AC4289
:1039400005D0054B53F8240080470134F7E738BD14
:103950009C0100109C0100109C010010A4010010AB
:10396000F0B58B890C4603F002010AB291B005460E
:1039700052BBB4F90E1000290ADAA189002701F020
:10398000800210B2B84214BF40264FF480660EE0A9
:1039900001AA02F01FFE0028EFDB029F07F470402F
:1039A000B0F50056734253EB06074FF48066284685
:1039B000314600F039F870B9A18901F4007210B2F3
:1039C000E8B941F00203A38104F14701012221601B
:1039D0002161626113E0A1890A4B41F08002AB6270
:1039E000A2812060206166614FB12846B4F90E10B3
:1039F00002F002FE18B1A08940F00103A38111B0CA
:103A0000F0BD00BFE5340000024B0146186800F02D
:103A10000BB800BF34010010024B01461868FFF7D5
:103A20007BBE00BF3401001070B5CD1C25F003052E
:103A300008350C2D38BF0C25002D06462DDB8D4298
:103A40002BD31D4B1B681C469CB12268501B0DD408
:103A50000B2802D92060241817E0A34203D1606824
:103A6000154A10601DE0616859601AE023466468D9
:103A7000EAE72946304600F077F8431C01460CD0AF
:103A8000CC1C24F003048C4201D1256009E03046AF
:103A9000611A00F069F80130F7D10C203060002085
:103AA00070BD04F10B01231D21F00700C31A02D0E1
:103AB0005A42E25070BD70BD8C03001010B5C9B2FF
:103AC000034682189342184604D0047801338C428E
:103AD000F8D100E0002010BD10B50023934203D0C0
:103AE000CC5CC4540133F9E710BD821803469342FD
:103AF00002D003F8011BFAE77047000038B5074C05
:103B0000054600202060084611461A46FCF7C8FE0C
:103B1000431C02D1236803B12B6038BD9C03001005
:103B2000F8B5064615460C4621B91146BDE8F840E1
:103B3000FFF77ABF1AB9FFF7EFFD2C4612E003F04A
:103B400083F9A8420ED230462946FFF76DFF07469B
:103B500038B121462A46FFF7BFFF30462146FFF71E
:103B6000DBFD3C462046F8BD38B5064C0023054633
:103B70000846236004F0FEFB431C02D1216801B11A
:103B8000296038BD9C03001000290CBF02220022CE
:103B90004FF4806300F000B82DE9F0411D46424B20
:103BA000044618680E461746984618B182690AB945
:103BB000FFF7ECFC3D48844203D1D8F800305C6844
:103BC0000CE03B498C4203D1374801688C6805E022
:103BD000384B9C4202D1344C2268D468022F5FD803
:103BE000002D5DDBDFF8C0802146D8F80000FFF72C
:103BF000C3FBA089002200F080010BB26260A261C9
:103C000023B1D8F800002169FFF786FDA289022FB1
:103C100022F08300A08112D036BB002D08BF4FF4E4
:103C200080652846FFF7F0FE0646C8B94FF480606D
:103C3000FFF7EAFE064688B94FF0FF3000E00020AB
:103C4000A289002342F00201A18104F1470201216F
:103C5000A360226022616161BDE8F0814FF480655C
:103C6000A18941F08003A381012F05D1A289694276
:103C700042F00100A081A1610B4BA18918680E4A96
:103C800001F00803826218B226602661656148B1BE
:103C900011F0030F18BF0025A5600020BDE8F081DA
:103CA0004FF0FF30BDE8F08134010010408A000081
:103CB000608A0000808A0000E53400000EB400B580
:103CC0009CB0029006906FF000401DAB04900790EE
:103CD0004FF402710A4853F8042BADF814104FF654
:103CE000FF71ADF81610006802A9019300F0FCF80E
:103CF000029B00221A701CB05DF804EB03B0704701
:103D0000340100100EB430B59CB01FAC4FF40172FA
:103D100054F8045BADF814200290069000F06EF8A1
:103D20000B4A039007900B4800214FF6FF730B904E
:103D30000F911491ADF81630106802A92A46234657
:103D4000019400F025FA1CB0BDE8304003B0704784
:103D5000340100107B3D000010B50C46B1F90E1087
:103D600003F07CF8002803DB626D1318636510BD57
:103D7000A38923F48051A18110BD002070472DE953
:103D8000F0411D468B890C4603F4807116460AB239
:103D900007462AB1B4F90E100022022302F040FCBB
:103DA000A089B4F90E1020F48053A381384632461E
:103DB0002B46BDE8F04101F0D5BC10B50C46B1F979
:103DC0000E1002F02DFC431CA38903D123F4805272
:103DD000A28110BD43F48051A181606510BDB1F98D
:103DE0000E1001F085BD10F8012B11F8013B012ADE
:103DF00028BF9A42F7D0A2EB03007047034613F89E
:103E0000012B002AFBD1181A0138704770B592B106
:103E10000B4605461AB928781978401A70BD10F873
:103E2000016B1C780131B442F5D1012AF3D0013A7B
:103E3000002CEDD1EFE7104670BD2DE9F8439368F3
:103E4000064689461446002B41D1928912F4906FA0
:103E50003DD0616903254D43236927680220FF1A7D
:103E600095FBF0F5791C02F48062A94211B2A8BF5B
:103E70003D18304679B12946FFF7D6FD8046A0B1FE
:103E80003A462169FFF728FEA38923F4906040F0A9
:103E90008002A28113E019462A46FFF741FE8046C0
:103EA00068B930462169FFF737FCA0890C2340F040
:103EB000400233604FF0FF30A281BDE8F88308EB89
:103EC00007016561ED1BC4F810802160A560A3683F
:103ED000002B06DD206800F8019BA2682060511EBF
:103EE000A1600020BDE8F8832DE9F0479CB0039362
:103EF0008B890D4603F0800114460AB2064662B172
:103F00002B6953B94021FFF78FFD2860286110B954
:103F10000C213160D3E0402068610027202130224D
:103F200009978DF829108DF82A2023461F4613F88B
:103F3000010B28B9B7EB040A16D04FF000090DE0C9
:103F40002528F3D1F6E7304614F809102A46FFF782
:103F500074FF013000F0AC8009F10109D145F2DBBA
:103F6000099901EB0A0209923B78002B00F0A0802E
:103F700000244FF0FF3004940794059006948DF8C8
:103F800053401A9407F101094F4F4C4638462178A7
:103F90000522FFF793FD09F10109049B30B1C41B11
:103FA000012707FA04F73B430493EDE7D90602D54E
:103FB00020218DF853101A0702D52B228DF853209B
:103FC00020782A2802D0079B27460EE0039A17681C
:103FD000101D002F039001DB079704E0794243F0A6
:103FE00002030791049301340AE03C46217801372B
:103FF0003039092903D80A2404FB0313F5E7079392
:1040000022782E2A19D160782A2809D103980234FF
:104010000368021D002B0392B8BF4FF0FF330BE083
:10402000671C00233C46217801373039092903D821
:104030000A2404FB0313F5E70593244F217838463F
:104040000322FFF73BFD38B1C71B402101FA07F1FE
:10405000049B01340B43049314F8011B1C480622F3
:104060008DF82810FFF72AFD88B11A4A32B9039F4C
:10407000FB1D23F007000830039014E003A9009112
:10408000304604A92A46144B00F0F8FB07E003A8C9
:10409000009004A930462A460F4B00F0B1FEB0F163
:1040A000FF3F804604D0099A02EB080109913CE7E2
:1040B000AB8903F0400002B20AB9099801E04FF061
:1040C000FF301CB0BDE8F087A88A0000AE8A00006F
:1040D000B28A00007D4800003B3E000038B54B1C12
:1040E000144602D14FF0FF3533E09389CDB2616BB6
:1040F00023F02002A28179B16268A16B8A4205DABD
:104100002068431E236000F8015C10E0214600F0A7
:10411000A7F90028F4D0E5E7206958B12368834265
:1041200008D913F8012CAA4204D1013B236062682C
:10413000501C0DE0616820682164214604F14403AD
:10414000032201F8465FE0636363A26321600120FC
:104150006060284638BD10B50C46496B69B104F162
:104160004403994201D0FFF7D7FA216C0020606325
:10417000616011B1E26B226010BDA3892069002249
:1041800043F0200120606260A1814FF0FF3010BD3C
:104190002DE9F041ADF5247D07460C46904601938C
:1041A000FFF75CFA9649974A002303A84693479382
:1041B0004890A291A39298F80050002D00F04781FA
:1041C000914E33685819417801F00802D3B2FBB11F
:1041D0006668002E12DD8C4A206811680378CE18BC
:1041E000757805F00803DAB272B1479965684E1C1C
:1041F0006B1E0130479663602060E9E73846214630
:10420000A39DA8470028E6D008F10106B046D2E7F2
:10421000252D08F101065DD14593439398F801508F
:104220002A2D03D11026439608F102063078334632
:10423000A0F130010136092906D8459D0A2101FB6C
:10424000050030384590F1E7682804D1439A42F0E0
:104250000103439333461D786C2D04D1439E0133F3
:1042600046F00200439019784C2904D1439A013357
:1042700042F0040543951E4616F8015B692D56D0A1
:1042800016D8642D4ED00FD85B2D56D004D8002DF3
:104290007BD0252D7CD11DE0632D79D1439840F052
:1042A00040014391002052E0672D71D805204EE077
:1042B000702D2DD006D86E2D4BD06F2D68D10821D2
:1042C000449138E0752D2DD0782D25D0732D5FD1F8
:1042D00002203CE06368002B0DDD21680878A842CD
:1042E00040F0B58065684A1C47996B1E481C6360A6
:1042F000226047908AE738462146A39A90470028D3
:10430000EBD0FFF7ACF94698002840F098809BE08E
:10431000439941F020034393439840F40072439241
:10432000102200E00A226E2D449204DC01E00021FC
:10433000449103200BE0042009E0314603A802F079
:10434000D1FD439A064642F0400343930120499031
:1043500022E0439DE8063FF559AFE90706D50198ED
:10436000479D021D019201680D804FE7019B15F0EA
:10437000020F03F10402019203D01D68479B2B60DA
:1043800044E747981968086040E7FFF768F95BE081
:1043900003230A20499344906368002B03DD43986C
:1043A000420611D51BE038462146A39A90470028C3
:1043B000F5D0A6E747986168421C481E002847923E
:1043C000606016DD5A1C22600F49236808681A785D
:1043D0008218517801F00800C2B2002AEAD1499B44
:1043E000022B13DC384643A9224601AB01F008F842
:1043F0001FE038462146A39B98470028E4D080E779
:10440000DD4000005741000038010010042B06DC9D
:10441000384643A9224601AB01F058F809E00F499C
:1044200000293FF4F3AE384643A9224601AB00F021
:104430000BFE01280BD002287FF4E8AE61E7A389C8
:1044400003F0400211B229B14FF0FF3002E0FFF754
:1044500006F946980DF5247DBDE8F081495000002D
:104460002DE9F0410C46496B04F1440399421CD1FB
:104470004FF48061FFF7D8FA18B94FF0FF30BDE86C
:10448000F08194F846204FF480616063A16380F866
:10449000FF2394F8453080F8FE3394F8441080F8F8
:1044A000FD1300F2FD30206012E0A66B77003A4663
:1044B000FFF736FB05460028DFD000EB0608404634
:1044C00029463246FFF708FBC4F800806563A763FE
:1044D0000020BDE8F081936810B5013B002B93608C
:1044E00005DA9469A34208DBCBB20A2B05D0136826
:1044F000C8B203F8011B136010BDBDE8104001F005
:10450000D7B800002DE9F0479CB00D461446039340
:10451000064618B183690BB9FFF738F87C48854225
:1045200001D1756808E07B498D4201D1B56803E08F
:10453000794A954208BFF568AB8903F0080001B2DB
:1045400051B12A6942B100272023302009978DF804
:1045500029308DF82A003CE03046294601F014F954
:104560000028F0D04FF0FF30CEE003980768021D1E
:10457000002F03927DDB0797013420782E2800F06E
:104580008A80664F217838460322FFF797FA38B1C0
:10459000C71B402101FA07F1049B01340B4304932C
:1045A00014F8011B5E4806228DF82810FFF786FAE2
:1045B000002800F094805B4A002A40F08780039F27
:1045C000FB1D23F0070008300390099A02EB080155
:1045D000099121460F4611F8012B2AB9B7EB040ABD
:1045E00015D04FF000090CE0252AF3D1F6E730464C
:1045F00014F809102A46FFF76EFF01307CD009F14C
:104600000109D145F3DB099B03EB0A0009903978D6
:10461000002971D000244FF0FF32049407940592D2
:1046200006948DF853401A9407F101093E4F4C4609
:10463000384621780522FFF741FA09F10109049B68
:1046400030B1C41B012707FA04F73B430493EDE79D
:10465000D90602D520208DF853001A0702D52B2148
:104660008DF8531022782A2A3FF47FAF079B274604
:1046700005E0794243F00203079104937CE73C464E
:10468000217801373039092903D80A2404FB0313A0
:10469000F5E7079371E762782A2A09D10398023473
:1046A0000368021D002B0392B8BF4FF0FF330BE0ED
:1046B000671C00233C46217801373039092903D88B
:1046C0000A2404FB0313F5E705935AE703A90091B5
:1046D000304604A92A46154B00F0D0F807E003A89D
:1046E000009004A930462A46104B00F089FBB0F137
:1046F000FF3F80467FF469AFAB8903F0400002B210
:10470000002A7FF42FAF09981CB0BDE8F08700BFE6
:10471000408A0000608A0000808A0000AE8A0000A3
:10472000B28A00007D480000A88A0000D74400003B
:1047300030B51346044A05460C4610682946224601
:10474000BDE83040FFF7DEBE340100102DE9D04F48
:104750001E4688B012AB002E9246109F93E81808B0
:1047600003DA06F100462D2100E00021BBF1660FBF
:1047700019700AD0BBF1460F07D0BBF1650F02D00C
:10478000BBF1450F03D1013701E0032300E0022311
:104790008DE8880007AA06AB039304920294524660
:1047A000334601F045F9BBF1670F804602D0BBF1FB
:1047B000470F02D11198C30728D5BBF1660F08EB4C
:1047C000070902D0BBF1460F0FD198F8001030292D
:1047D00009D15046314600220023FEF7DFF910B917
:1047E000C7F10107276023689944504631460022EB
:1047F0000023FEF7D3F908B1CDF81C90079848457F
:1048000004D2302200F8012B0790F7E7079A159B96
:10481000C8EB02011960404608B0BDE8D08F73B5FF
:104820000346002903F8022B02DA49422D2200E058
:104830002B22092942701A4619DD0DF106040A26B9
:1048400091FBF6F506FB15113031092D234604F8CE
:1048500001192946F3DC303103F8011D0DF1070180
:104860008B4209D213F8011B02F8011BF6E7302234
:1048700089181A7059709A1C101A7CBD2DE9F04FD6
:1048800091B00C4616461F46DDF86880054601F0DB
:10489000C3FED0F800A05046FFF7B0FA0B90D8F84E
:1048A00000000023C11D0E9321F0070303F108024D
:1048B00094F818B0C8F80020D3E90001C4E9120147
:1048C000D4E9120102F0DCFA0128D4E9120117D16F
:1048D00000220023FEF76CF910B12D2284F843204A
:1048E0009A489B49BBF1470F8CBF88468046206899
:1048F000032320F00401236121604FF0000986E0CA
:1049000002F0BEFA10B993489349EBE761684A1C7C
:1049100001D1062307E0BBF1670F02D0BBF1470FBF
:1049200002D109B9012363602268606842F48061A2
:104930008DE80300D4E9122321600DF133000DA9A5
:10494000029003910EA800210590CDF810B00691B9
:104950002846FFF7FBFEBBF1670F804602D0BBF194
:10496000470F09D10D9BD81C02DB6268934231DDF1
:10497000ABF1020C5FFA8CFBBBF1650F0D9812D8FE
:10498000411E5A4604F150000D91FFF748FF0E9A60
:1049900081468318012A236102DC2068C10730D5D3
:1049A000591C21612DE0BBF1660F15D10028636809
:1049B00008DD206113B92268D2071ED50133C01863
:1049C00020611AE013B92168C80701D59A1C13E0C9
:1049D000012211E04FF0670B0D9B0E998B4205DB16
:1049E00020682361C10708D55A1C05E0002BD4BFFD
:1049F000C3F102030123CA1822610D994FF0000987
:104A0000A1659DF8332012B12D2384F8433000971F
:104A1000284621460FAA334600F082F9013002D120
:104A20004FF0FF3079E1236813F480620DD1914695
:104A30002069814522DA284618F809103246B8471D
:104A40000130EDD009F10109F2E7BBF1650F40F249
:104A5000F180D4E9120100220023FEF79FF800281C
:104A60002DD0302128463246B8470130D8D00E9B91
:104A70000D9A9A4207DB2068C30704D421688A078D
:104A800000F1488140E10B990AEB010BDA4507D0B0
:104A900028461AF8011B3246B8470130F6D1BFE765
:104AA0004FF000080E9B5A1E9045E7DA2846A17E7B
:104AB0003246B8470130B3D008F10108F2E70D984B
:104AC000002838DC302128463246B8470130A7D0CC
:104AD0000D9A22B90E9810B92168C807CED50B9B44
:104AE0000AEB030BDA4507D028461AF8011B3246B9
:104AF000B8470130F6D193E74FF000090D9A5042C4
:104B0000814508DA2846A17E3246B847013087D071
:104B100009F10109F2E74FF000090E998945ADDA74
:104B2000284618F809103246B84701303FF478AFEC
:104B300009F10109F1E7A16D0E9B8B42B4BF9C46C0
:104B40008C46BCF1000F09DC002329E0B98A000083
:104B5000BD8A0000C18A0000C58A0000C1460CEB76
:104B6000080319F8011B28460993CDF828C03246DE
:104B7000B8470130099BDDF828C03FF451AF994593
:104B8000EFD1E1E7A17ECDF828C02846324609934F
:104B9000B84701300999DDF828C03FF441AF4B1CFC
:104BA000D4F858902CEAEC72C2EB09008342E9DB9E
:104BB0000E990D9B8B420FDB2268D1070CD40E9906
:104BC0000D9BC844CA1AC9EB01099145A8BF91467B
:104BD000B9F1000F0DDC18E00B980AEB000BDA4579
:104BE000EDD028461AF8011B3246B8470130F6D1FD
:104BF00016E708EB090A284618F8011B3246B847A1
:104C000001303FF40DAFD045F5D14FF0000808E07A
:104C10002846A17E3246B84701303FF401AF08F183
:104C200001080D980E9929EAE9720B1A981A804525
:104C3000EEDB23E70E9898F8001001280ADCDA076B
:104C400008D428463246B84701303FF4E9AE4FF069
:104C5000000848E028463246B84701303FF4E0AE4D
:104C60000B990AEB010BDA4507D028461AF8011B0D
:104C70003246B8470130F6D1D2E6D4E9120100221B
:104C80000023FDF78BFF10B14FF000081AE04FF042
:104C9000000A0E98411E8A45D9DA08EB0A025178BB
:104CA00028463246B84701303FF4BAAE0AF1010A4D
:104CB000EFE72846A17E3246B84701303FF4B0AE58
:104CC00008F101080E9B5A1E9045F2DBBFE704EB8A
:104CD0000803284693F850103246B84701303FF495
:104CE0009FAE08F10108C845F1DBC7E62846617EA2
:104CF0003246B84701303FF493AE08F10108E2684C
:104D00000F9BD01A8045F1DBE0680F998842B8BF4D
:104D1000084602E04FF00008F1E711B0BDE8F08F5F
:104D20002DE9F047154699468A680B6980469A42F4
:104D3000A8BF13462B6091F843000C46DDF820A075
:104D400008B1591C29602668B20602D52A68931C4E
:104D50002B60206810F0060618D094F84370206885
:104D60003E1C18BF012683061AD5A119302281F8EE
:104D7000432094F84530023681F8443010E0404634
:104D8000617E4A46D047013006D00136E1682A6884
:104D90008B1A9E42F3DBE0E74FF0FF30BDE8F0876F
:104DA0000027B74209DAE119404691F843104A4614
:104DB000D0470130F0D00137F3E721682868E66872
:104DC00001F00602042A08BFC0EB06052369A668A5
:104DD0000CBF25EAE57500259E42C4BFC3EB060360
:104DE000ED180026AE4207DA4046A17E4A46D0477B
:104DF0000130D1D00136F5E70020BDE8F087000092
:104E00002DE9F0430C46257E85B06E2D9046074671
:104E100099460C9904F1430200F0AA8012D8632D40
:104E200024D009D8002D00F0BB80582D40F0CB8055
:104E300084F84550824D57E0642D20D0692D40F014
:104E4000C2801CE0732D00F0AF8009D86F2D2FD0E9
:104E5000702D40F0B880256845F0200626603FE0C0
:104E6000752D25D0782D40F0AE8039E0086804F12A
:104E70004206021D0A60016884F84210A7E020681B
:104E80000B6810F0800F02D01E1D0E6008E003F1C9
:104E9000040510F0400F0D6002D0B3F9001000E0DF
:104EA000196800293CDA2D20494284F8430037E094
:104EB00025680E6815F0800F02D0331D0B6007E0E7
:104EC00006F1040015F0400F086001D0318800E0C1
:104ED0003168267E5A4D6F2E14BF0A2308231BE02B
:104EE0007820584D84F8450020680B6810F0800F3A
:104EF00003F104060E6003D1410601D5198800E0D4
:104F00001968C60744BF40F02000206019B9206826
:104F100020F0200323601023002084F8430001E0E8
:104F2000474D0A236668002EA66003DB206820F048
:104F30000400206001B96EB104F14200B1FBF3FE40
:104F400003FB1E11695C064600F801197146002931
:104F5000F4D100E01646921B082B22613CD1236855
:104F6000D80739D56068904236DC511C616033E067
:104F700026680B6816F0800F05D01E1D0E6019689C
:104F8000606908600CE003F1040016F0400F08604F
:104F900003D018686369038002E061691E683160AC
:104FA00000232361164617E00E68321D0A6036683A
:104FB0003046FEF723FF63682061984288BF236173
:104FC0002069606005E004F1420684F84250012344
:104FD0002361002184F84310CDF800903846214623
:104FE00003AA4346FFF79CFE013002D14FF0FF3089
:104FF00022E000252269954207DA3846715D424673
:10500000C8470130F2D00135F4E72168890705D49B
:10501000E06803998842B8BF08460DE00025E068C3
:10502000039BC21A9542F3DA3846617E4246C8476E
:105030000130DBD00135F2E705B0BDE8F08300BFF9
:10504000C98A0000DA8A00002DE9F04F87B0039387
:105050008B6816465A1EB2F5AE7F07460C4607D936
:105060006FF4AE7040F25D1103EB000CA16001E043
:105070004FF0000C2568A04645F4F06348F81C3B4F
:105080000025C3462A46A9460595AA460495A16867
:10509000002900F0DF80306803784E2B5CD01DD8EB
:1050A000392B0FD8312B47D22E2B00F0908005D80A
:1050B0002B2B49D02D2B40F0CD8045E0302B40F0FC
:1050C000C98028E0452B00F08B8003D8412B40F0AD
:1050D000C18056E0462B6ED0492B13E0662B6AD078
:1050E0000CD8592B6FD003D8542B40F0B38066E016
:1050F000612B46D0652B40F0AD8071E06E2B2BD03C
:1051000003D8692B40F0A6803FE0742B57D0792B51
:1051100040F0A08057E0206810F4807F0CD020F091
:10512000800323600AF1010ABCF1000F75D0013140
:105130000CF1FF3CA16070E05119002940F08A8019
:10514000206820F4C07005E02168080640F18280E4
:1051500021F0800020605EE06AB9BAF1000F0CD146
:10516000216801F4E060B0F5E06F06D121F4F0624F
:10517000226001224FE0022A4CD0012D18D0042DCC
:1051800015E0012A66D1022245E06DB9BAF1000F9F
:1051900063D1216801F4E060B0F5E06F61D121F4E2
:1051A000F0652560012536E0032D01D0052D51D194
:1051B0000135EDB22FE0022D4CD103252BE0062D59
:1051C00048D1072527E0072D44D1082523E0216891
:1051D00088053FD521F420702060CDF810A01AE09A
:1051E000216801F4A060B0F5806F04D0480531D586
:1051F000BAF1000F35D0880504D40498D946C0EB25
:105200000A00059021F4F06141F4C07020604FF075
:10521000000A00E003220BF8013BA3682069591E35
:10522000A1607168431C481E00282361706003DD83
:105230003368591C31602AE70292CDF804C0D4F8D3
:105240008031384631469847029ADDF804C000287C
:105250003FF41DAFBAF1000F03D0216821F4807034
:105260002060531E012B11D8C3455A460CD912F8A1
:10527000011CD4F87C3138463246984721690BF13D
:10528000FF3B481E2061EFE70120B4E06A1E062ABA
:105290002ED8022D1CD9DC46CBEB050101EB0C030B
:1052A00003F0FF0003280ED91CF8011DD4F87C314F
:1052B000CDF804C03846324698472169DDF804C06D
:1052C000481E2061E8E7033DEDB2C5EB0B0B0FE094
:1052D000C3455946D8D93246D4F87C31384611F8FE
:1052E000011C984720690BF1FF3B421E2261EFE74A
:1052F0002168CA052ED54B050FD5C3455946C3D9DC
:105300003246D4F87C31384611F8011C98472069A0
:105310000BF1FF3B421E2261EFE71BF8011C2269E3
:105320000BF1FF35531E652923610DD045290BD0A4
:10533000D4F87C5132463846A84720691BF8021C35
:10534000421EABF102052261D4F87C313846324668
:105350009847AB46216811F010024BD18BF8002022
:10536000266806F4C065B5F5806F06D10498C0EBD9
:105370000A035A42A3B1D94608E0059E86B13846D1
:1053800009F101010A2302F07FFB821B04F26F1175
:10539000894528BF04F5B77948461849FEF78EFCC1
:1053A00000223846414601F0E7FD2268039D12F0D5
:1053B000020F06460F462B6802D0181D286006E033
:1053C000039D12F0040F03F104022A6003D0196850
:1053D000C1E900670BE01D6801F052FD10B901F052
:1053E000B1FD03E030463946FDF732FC2860E36842
:1053F0005A1CE260002007B0BDE8F08FEB8A000085
:105400002DE9F04115468A6880460C4632B9886914
:10541000002814BF4FF0FF310121A1602668F20679
:1054200003D41F683A1D1A603F680026A369DBB9E0
:1054300023680136DB0603D42868027807F8012BBD
:10544000696828684B1EA168421C481E6B602A6070
:10545000A06028B3002BE9DCD4F88031404629460F
:1054600098470028E2D01BE0012B07D12968626928
:105470000878115C0029DBD116B311E0022B01D0B2
:1054800066B10DE0286810490278086882185178E2
:1054900001F00800C2B2002ACAD0F1E7012B0FD0F8
:1054A000226812F0100105D1E068A269431CE36094
:1054B00002B13970216900208E192661BDE8F081A2
:1054C0001846BDE8F08100BF380100102DE9F04F0B
:1054D0001F46734B0C4687B006AE8146154693E8CF
:1054E0000700A36806E90700A0696E4A6E495E1EC0
:1054F000032808BF1146B6F5AE7F019107D96FF4B6
:10550000AE7040F25D1203EB000AA26001E04FF0C2
:10551000000A216804F11C0641F450632360B3467D
:105520004FF00008296803A850F8280009780222E3
:10553000FEF7C4FA002832D0B8F1010F0BD163682E
:105540002BB92168082241F4007062602060236852
:1055500023F4A0600CE0B8F1020F0AD1236803F431
:10556000C062B2F5007F1AD11021616043F48070EF
:105570002060A1684A1EA26089B1286810F8013B2A
:105580000BF8013B696828604A1E002A6A6006DC45
:10559000D4F88031484629469847002841D108F17F
:1055A0000108B8F1030FBDD1606808B90A21616034
:1055B00062683E4B6069991A01F094FC4FF0000854
:1055C000A368002B2FD02A6860691178405C50B323
:1055D00030290CD12168090509D508F10108BAF173
:1055E000000F0BD0591C0AF1FF3AA16006E02368B6
:1055F00023F41060206012780BF8012B6B68581EA2
:105600000028686003DD29684B1C2B6005E0D4F896
:10561000802148462946904728B9A068421EA260CA
:10562000CEE74FF000082168C8050DD5B34509D96C
:105630001BF8011CD4F87C3148462A4698470BF1E8
:10564000FF3AD346B34526D0206810F0100219D196
:105650008BF80020636848463146019DA8472268C0
:105660003B6812F0200F06D1D10704D5191D39600F
:105670001A68108003E0191D39601B681860E06823
:10568000421CE2602169C6EB0B06B04401EB080343
:105690002361002000E0012007B0BDE8F08F00BFCB
:1056A000F08A0000897A0000957B00000C8B0000D6
:1056B00070B50E461446054618B183690BB9FDF75F
:1056C00065FF2548844201D16C6808E023498C427B
:1056D00001D1AC6803E0224A944208BFEC68A0897B
:1056E000A36900F008010AB2A3600AB123695BB99B
:1056F0002846214600F048F830B1A689092046F036
:105700004002A28128600BE0206821696269401A8A
:105710009042F6B207DB28462146FDF72DFE10B178
:105720004FF0FF3615E0A3682268591EA16002F809
:10573000016B636901309842226004D0A189CB07D4
:1057400007D50A2E05D128462146FDF715FE00286B
:10575000E6D1304670BD00BF408A0000608A00007C
:10576000808A000038B5074C0546002020600846B6
:1057700011461A46FBF716F9431C02D1236803B100
:105780002B6038BD9C030010364A70B50546106882
:105790000C46164618B1816909B9FDF7F7FE324B80
:1057A0009C4202D1326854680CE03048844203D1F4
:1057B0002C4B1868846805E02D4A944202D1294C8C
:1057C0002168CC68A18901F0080318B208BB01F078
:1057D000100213B213B94FF0FF3070BD01F0040195
:1057E00008B290B1616B41B104F14402914202D020
:1057F0002846FDF791FF00236363A189236921F007
:1058000024000022A08162602360A18941F0080089
:10581000A08122694AB9A38903F42071B1F5007F00
:1058200003D028462146FEF79BF8A08910F001021C
:1058300005D0636900225942A260A16107E000F02F
:10584000020319B209B9606900E01046A06020693E
:1058500030B9A28902F0800318B20028BBD170BD14
:10586000002070BD34010010408A0000608A0000F2
:10587000808A00002DE9F84399461C4B06461D68B6
:105880000F46AC6C904654B94FF4C670FEF7BCF8A6
:105890000021A8644FF4C6720446FEF726F9256875
:1058A0001F2D1EDCAEB1012202FA05F2D4F88411DC
:1058B00004EB85001143022EC0F88480C4F88411E3
:1058C000C0F8049105D1D4F8883143EA0200C4F845
:1058D000880104EB85020135576025600020BDE892
:1058E000F8834FF0FF30BDE8F88300BFA48A0000C2
:1058F00038B5064C0023054608462360FBF73CF804
:10590000431C02D1216801B1296038BD9C030010FD
:105910002DE9F74F0B69026905469A42C0F2828071
:10592000D81C86008A1950685C1EAB1902F1040964
:105930005A68461CB2FBF6F601F1140805F114078B
:10594000002E3DD000203A46CDF804808646019BCB
:1059500053F804CB1FFA8CFA06FB0A0A4FEA1C40E4
:10596000019306FB00F303EB1A4C13684FEA1C404B
:105970001FFA83FBDE441FFA8CFC1FFA8AFACAEB7B
:105980000E0ACCEB134303EB2A4C019B1FFA8AFA55
:105990004FEA2C4E4B454AEA0C4C42F804CBD6D980
:1059A000221D05EB8203586850B9BB421A4601D844
:1059B0002C6105E01068043B0028F9D1013CF4E7B4
:1059C000284601F095F800282ADB01363B460020E6
:1059D00058F804EB1A681FFA8EF11FFA82FAC1EB2D
:1059E0000A014FEA1E4C0918CCEB124000EB214291
:1059F00089B2101441EA0242C84543F8042BE7D9A2
:105A0000231D05EB8303586850B9BB42194601D8E2
:105A10002C6105E00A68043B002AF9D1013CF4E757
:105A2000304600E00020BDE8FE8F000000000000CE
:105A30002DE9F04F456A99B08346259CCDE90423B2
:105A400045B91020FDF7E0FFCBF8240045608560E4
:105A50000560C560DBF82430196861B1586801221F
:105A600002FA00F648608E60584600F020FEDBF82F
:105A7000241000270F60059B002B05DA012223F07C
:105A800000462260059601E000202060059F9A49AB
:105A9000994B394099421CD12499049B42F20F72D0
:105AA0000A603BB9954E9648C7F31307002F18BFFD
:105AB000304600E09148269E002E00F05285C278C4
:105AC00012B100F1080100E0C11C269E316000F017
:105AD00048BDDDE904450022204629460023FDF7A4
