:100000000080001079020000AD020000AF02000085
:10001000B1020000B3020000B502000000000000C1
:10002000000000000000000000000000B702000017
:10003000B902000000000000BB020000BD02000089
:10004000C1020000C3020000C5020000C702000098
:10005000C9020000CB020000CD020000CF02000068
:10006000D1020000D3020000D5020000D702000038
:10007000D9020000DB020000DD020000DF02000008
:10008000E1020000E3020000E5020000E7020000D8
:10009000E9020000EB020000ED020000EF020000A8
:1000A000F1020000F3020000F5020000F702000078
:1000B000F9020000FB020000FD020000FF02000048
:1000C00001030000030300000503000010B5054C08
:1000D000237833B9044810B10448AFF300800121FC
:1000E000217010BDA0010010000000000C72000083
:1000F00008B5064B1BB106480649AFF30080064819
:10010000016811B1054A02B1904708BD0000000026
:100110000C720000A4010010A001001000000000FB
:1001200000B59FB0684600F027FE4CF20701C2F20E
:1001300009016A4603A800F051F80A4802F0DCFB06
:10014000094802F0D9FB03A800F078F801460748F7
:1001500002F0BAFB034802F0CFFB4FF47A7000F0D4
:10016000DBFCF0E7C46B0000C86B0000E46B000030
:1001700010B50446006E00F0F1FD636E98420BDB93
:100180004CF60932C01AC8F63D5282FB0013C11763
:100190001A18C1EB6210A06610BD00BF10B504466E
:1001A000006E00F0DBFD606610BD00BF00B50B46C1
:1001B00083B04968024618686B4603C30B46D907EB
:1001C00007D5581011581018009A8958884703B05D
:1001D00000BD014602EB6300F8E700BF2DE9F041E6
:1001E0000446904640F2AD1600F0CAFC40F29D1362
:1001F00000250121C0F20003C0F2000604F11C0733
:100200000A4638462363C4F860806566A566E462E2
:1002100065632664A56200F0D1FB40F27110C0F264
:100220000000E064A46438462565E6656564022143
:10023000012200F0C3FB2046BDE8F081806E7047CC
:1002400040F2A01040F2A042C1F20000C1F2000250
:1002500008B50021121A02F02EFBAFF3008002F065
:10026000A1FAFFF75DFF00F03BFC00BF022801DCB4
:100270000120704706F07EBC0749084A084B9A42A5
:10028000BEBF51F8040B42F8040BFFF7F8BF054856
:10029000804705480047000010720000C8000010A9
:1002A000A00100106103000041020000FEE7FEE72C
:1002B000FEE7FEE7FEE7FEE7FEE7FEE7FEE7FEE716
:1002C000FEE7FEE7FEE7FEE7FEE7FEE7FEE7FEE706
:1002D000FEE7FEE7FEE7FEE7FEE7FEE7FEE7FEE7F6
:1002E000FEE7FEE7FEE7FEE7FEE7FEE7FEE7FEE7E6
:1002F000FEE7FEE7FEE7FEE7FEE7FEE7FEE7FEE7D6
:10030000FEE7FEE7FEE700BF4FF46D43CEF20003C9
:100310009A6870B4B2F1805F19D09E684FF0805532
:100320003268C6F1805433460434C0362A605D68B2
:100330001A1DE5509D680833B342A550F7D14FF41C
:100340006D4CCEF2000C4FF08053CCF8083000F129
:100350001000820002F1805CCCF8001070BC704785
:100360004FF44042C4F20F02202330B4C2F8A0314F
:10037000D2F8A001800656D44FF4404CC4F20F0CC2
:1003800000250220CCF804010124CCF8A851AA23AE
:10039000CCF8AC5155220B25CCF80C416146CCF879
:1003A0008450CCF88C30CCF88C20CCF88040CCF841
:1003B0008C30CCF88C20D1F888204FF4404C52017E
:1003C000C4F20F0CF7D50323AA215522CCF88030B4
:1003D0006046CCF88C10CCF88C20D0F888104FF404
:1003E000404C11F0407FC4F20F0CF6D048F2DE739F
:1003F000C0F2284305200022CCF80801CCF8C43014
:10040000CCF8C821DCF8001021F4704323F03A0046
:1004100040F44052084B42F03A010120CCF8001061
:10042000186030BC7047D2F8A0114906A4D4D2F8A5
:10043000A0114906F7D59FE7800200102DE9F04F83
:1004400048F28003C4F20203D3F80490D3F8088082
:100450005A6A986A85B04FF0000B214F0292DFF87C
:1004600084A003905D465C46012620E012EA080F56
:1004700005D05BF807001443002840F0AC8101353B
:1004800006FA05F212EA090F0BF1040B03D057F834
:100490000B001443E0B912EA080F03D057F80B0021
:1004A000144308BB0135202D0BF1040B25D006FAAF
:1004B00005F212EA090FD9D05BF8070014430028AF
:1004C000D4D00192DAF8003001219847019ACDE7A3
:1004D0000192DAF8003001219847019ADBE700BF6A
:1004E000C0010010BC0100100221DAF80030013513
:1004F0009847202D0BF1040BD9D1029911F0010579
:1005000006D0AE48D0F88000002840F005820125D2
:100510000399C90706D5A94DD5F88000002840F0F9
:100520005F8101250298820707D5A44945F002059D
:10053000D1F88400002840F059810398830707D53B
:100540009E4945F00205D1F88400002840F053810F
:100550000298400707D5994945F00405D1F888006D
:10056000002840F04D810398410707D5934945F095
:100570000405D1F88800002840F04781029802075E
:1005800007D58E4945F00805D1F88C00002840F0C9
:1005900041810398030707D5884945F00805D1F83C
:1005A0008C00002840F03B810298C00607D58349A3
:1005B00045F01005D1F89000002840F035810398EF
:1005C000C10607D57D4945F01005D1F890000028F7
:1005D00040F02F810298820607D5784945F0200522
:1005E000D1F89400002840F029810398830607D5AC
:1005F000724945F02005D1F89400002840F023818D
:100600000298400607D56D4945F04005D1F898009D
:10061000002840F01D810398410607D5674945F041
:100620004005D1F89800002840F017810298020692
:1006300007D5624945F08005D1F89C00002840F0BC
:1006400011810398030607D55C4945F08005D1F870
:100650009C00002840F00B810298C00507D557493F
:1006600045F48075D1F8A000002840F0058103987A
:10067000C10507D5514945F48075D1F8A00000287F
:1006800040F0FF800298820507D54C4945F400757B
:10069000D1F8A400002840F0F9800398830507D51D
:1006A000464945F40075D1F8A400002840F0F380D5
:1006B0000298400507D5414945F48065D1F8A80066
:1006C000002840F0ED800398410507D53B4945F4EB
:1006D0008065D1F8A800002840F0E7800298020564
:1006E00007D5364945F40065D1F8AC00002840F044
:1006F000E1800398030507D5304945F40065D1F83A
:10070000AC00002840F0DB800298C00407D52B49DC
:1007100045F48055D1F8B000002840F0D58003980A
:10072000C10407D5254945F48055D1F8B00000280B
:1007300040F0CF800298820407D5204945F4005547
:10074000D1F8B400002840F0C9800398830407D58D
:100750001A4945F40055D1F8B400002840F0C38090
:100760000298400407D5154945F48045D1F8B800F2
:10077000002840F0BD800398410407D50F4945F497
:100780008045D1F8B800002840F0B78002980204F4
:1007900007D50A4945F40045D1F8BC00002840F0CF
:1007A000B180039803040BD5044945F40045D1F802
:1007B000BC00002840F0AB8002E000BFC001001088
:1007C00048F2800CC4F2020CCCF80C40CCF82C504F
:1007D00005B0BDE8F08FDAF80030022198474EE608
:1007E000504A02211368984701259BE64D4A012192
:1007F00013689847A1E64B4A022113689847A7E679
:10080000484A012113689847ADE6464A0221136819
:100810009847B3E6434A012113689847B9E6414A2D
:10082000022113689847BFE63E4A012113689847A2
:10083000C5E63C4A022113689847CBE6394A0121B4
:1008400013689847D1E6374A022113689847D7E6DC
:10085000344A012113689847DDE6324A02211368C1
:100860009847E3E62F4A012113689847E9E62D4AA5
:10087000022113689847EFE62A4A01211368984736
:10088000F5E6284A022113689847FBE6254A01212C
:100890001368984701E7234A02211368984707E73E
:1008A000204A0121136898470DE71E4A0221136868
:1008B000984713E71B4A01211368984719E7194A1B
:1008C0000221136898471FE7164A012113689847C9
:1008D00025E7144A0221136898472BE7114A0121A2
:1008E0001368984731E70F4A02211368984737E7A2
:1008F0000C4A0121136898473DE70A4A0221136810
:10090000984743E7074A01211368984749E7054A92
:1009100002211368984753E7024A01211368984758
:100920000125F5E5BC01001070B50546481C25D031
:100930004FF4404621F01F0001F01F04C2F20906E7
:100940001449B0420A6085E8110006D04CF240021A
:10095000C2F209022034904212D10F49152041F809
:1009600024300E49AC60FFF7CFFC4FF46143CEF268
:1009700000034FF400101860002070BD084670BDE1
:10098000074C08492568E86801F0FAFE012000F0EC
:10099000A7F800BFBC010010C00100103D0400001A
:1009A00030010010E86B0000826840F2C013C1F211
:1009B0000003002143F82210704700BF30B40368E1
:1009C0004FF44044C2F20904A3422AD04CF240053D
:1009D000C2F20905AB4216D0012936D0A34247D056
:1009E000AB4201D030BC70474068012101FA00F3EE
:1009F000002A4ED148F28002C4F20202506B20EA73
:100A000003015163EEE74368012404FA03F348F25B
:100A10008004C4F202040129E3621AD0002AE9D05A
:100A200037E04368012404FA03F348F28004C4F277
:100A300002040129E36036D002B348F28000C4F218
:100A40000200426913434361CCE7A3422BD0AB427F
:100A5000C8D14068012148F2800C01FA00F0C4F2CC
:100A6000020CB2B3DCF830100843CCF83000B9E720
:100A70004068012101FA00F3002ADED148F2800C1F
:100A8000C4F2020CDCF8142022EA0301CCF81410A2
:100A9000A8E748F2800CC4F2020CDCF834201343BF
:100AA000CCF834309EE74068012148F2800C01FA0E
:100AB00000F0C4F2020C2AB1DCF810100843CCF8A4
:100AC00010008FE7DCF8102022EA0003CCF8103089
:100AD00088E7DCF8302022EA0003CCF8303081E7E8
:100AE00010B5044600F00AF820B904B9FEE700F09A
:100AF00049F9FBE700F004F8F7E700BF00F028BA77
:100B000030B585B06D46182420462946ABBE044654
:100B1000204605B030BD00BF38B5054600F0D4FC16
:100B2000044600F0D1FC001BA842FAD338BD00BF38
:100B30004FF47A7303FB00F0FFF7EEBF012902D0F8
:100B4000022903D07047283000F04EBD443000F039
:100B50004BBD00BF044A10B5044640F81C2BFFF7FC
:100B600023FF204610BD00BF286C000010B50446CE
:100B7000FFF7F0FF204600F0BFFD204610BD00BF8C
:100B800038B50F4B04460D4640F8283B002100F0D5
:100B900027FD002104F1440000F022FD40F63D3223
:100BA00029462346C0F2000204F11C00FFF7BCFEF8
:100BB000201D2946002200F045F9204638BD00BF1F
:100BC000286C00000E4B10B51C6804B110BD4CF22F
:100BD00002014CF203020B48C2F20901C2F20902FF
:100BE00000F036FB082107482246012300F0ECFA0A
:100BF00004484FF41651BDE8104000F0B1B900BFF1
:100C00008403001094030010022808B50BDD084B84
:100C1000C21E53F82200002143F8221028B10368B5
:100C20005A68904708BD002008BD4FF0FF3008BD4E
:100C3000840200100228F8B50D46174628DC1D492D
:100C40000A68002A2DD00FB32C46EE1914F8011BA8
:100C5000ED43AB19184803F0010500F02BFCB4423A
:100C600014D035B114F8011B134800F023FCB44232
:100C70000CD0254615F8011B0F4800F01BFC6178CD
:100C80000D486C1C00F016FCB442F2D13846F8BD99
:100C90000A4B033853F8200040B103681B6898479B
:100CA000F8BDFFF78FFF002FCED1EFE74FF0FF30F9
:100CB000F8BD00BF840300109403001084020010EC
:100CC000022810B50C460ADD0A4B033853F8200001
:100CD00060B103689B6898470146084610BD064806
:100CE00000F0E2FB01212070084610BD4FF0FF31FB
:100CF000F3E700BF8402001094030010022808B537
:100D000008DD074B033853F8200028B103681B693E
:100D1000984708BD002008BD4FF0FF3008BD00BF58
:100D200084020010022808B504D84FF4005048602F
:100D3000002008BD01F01EFD092303604FF0FF30C5
:100D400008BD00BF036810B504460BB9184610BDB6
:100D500000F0BAFB6168401A10BD00BF10B584688E
:100D6000FFF7F0FF201810BD10B5044600F0ACFBF3
:100D700000236060A36010BD10B50446FFF7F4FFC8
:100D8000204610BD00B54CF2320199B06846C2F25F
:100D90000901012200F056F84CF2340106A8C2F213
:100DA0000901012200F04EF84CF235010CA8C2F204
:100DB0000901012200F046F84CF2370112A8C2F2F4
:100DC0000901012200F03EF8019A039B0A991A607A
:100DD0000798109B08600D9A96201A601399159A2F
:100DE0001160FFF7A5FE0198049B099A1860079906
:100DF0000F9B11600D98169A186013999620116038
:100E0000FFF796FEE0E700BF10B50021044604F0AE
:100E10001F0400F043F8012000FA04F010BD00BFE9
:100E200031B9836841681A6822EA01001860704786
:100E3000012900D0704783684268196841EA0200BE
:100E400018607047F8B54B1C0D46044616461DD079
:100E500021600846FFF7D8FF25F01F0303F11C01AE
:100E600003F1180703F1140260602161E760626119
:100E7000A36020463146FFF7D3FF2EB92846032151
:100E8000BDE8F84000F02CB8012E00D0F8BD28468F
:100E90000221BDE8F84000F023B800BF431C10B4A5
:100EA0001BD000F16040A0F51C2404F00F03580093
:100EB000032202FA00FC01FA00F14FF4404320093A
:100EC000C4F2020353F8204024EA0C0243F8202025
:100ED00053F82020114343F8201010BC704700BF86
:100EE000421C70B432D000F16040A0F51C2000F02C
:100EF0001F05C1F3800404FA05FC42094FF4404386
:100F0000C4F202031A3253F8226026EA0C0543F8B1
:100F1000225053F8226046EA0C0543F82250ACB93F
:100F200000F00F046200032505FA02F501FA02FC45
:100F30000009103053F8201021EA050443F820403E
:100F400053F820404CEA040243F8202070BC70475C
:100F50004EF6F053CEF20003186800F0010070471F
:100F60002DE9F04F00230468C4F201038BB09C42CA
:100F7000099000F0FB8040F3D9804FF4004CC4F29C
:100F8000090C64454FF4404300F0E180C4F20903CA
:100F90009C4240F0D1804FF44040C4F20F00D0F8A2
:100FA000AC2122F44023C0F8AC31D0F8AC2142F49B
:100FB0008023C0F8AC3180480A0103680893089880
:100FC000B3FBF2FC02FB1C021FFA8CF30793002A0E
:100FD00000F0BB8008465908029101F0B1F9029A6D
:100FE000834607989042C0F0B080079F01240021FB
:100FF000DA460397059404914FF0010909F10102C3
:101000005FFA82F90020B9F1100F0690089F61D0B5
:10101000029801F091F900F073FD00230022C4F260
:10102000300300F0C1FDCDE900010126384601F092
:1010300083F900F065FD044630460D4601F07CF969
:101040008046484601F078F90146404601F080FAB2
:101050004FF07E5101F0C0F800F052FD02460B4601
:10106000DDE9000100F0A0FD02460B4620462946BE
:1010700000F0C4FE01F05AF80146584601F0AAF803
:10108000594601F065FA00F03BFD05F08BFD01F0DB
:101090004DF85146044601F045FB80B1204600F072
:1010A0002FFD43A3D3E9002300F0F0FF029AA246EC
:1010B000CDF814900496039208B1012306930136EB
:1010C000F6B24E45B2D109F101025FFA82F9B9F1E7
:1010D000100F9DD1029B07985C1CA1B2884202911F
:1010E00002D3069A002A87D0049B059C099A03988C
:1010F00043EA04111468CBB2079094F80CC0079926
:101100004CF080022273099C080A2268099C107125
:101110002068C9B20170226882F828302368197BE0
:1011200001F07F0018730BB0BDE8F08F4FF4404022
:10113000C4F2000084422AD0204D21492E68F06874
:1011400001F01EFB0120FFF7CBFC1023D5E7C4F212
:101150000F03D3F8AC0120F44032C3F8AC21D3F82C
:10116000AC0140F48032C3F8AC2124E74FF4404C8A
:10117000C4F20F0CDCF8A83123F44070CCF8A801BD
:10118000DCF8A82142F48073CCF8A83113E74FF4BF
:10119000404CC4F20F0CDCF8A82122F0C003CCF8BC
:1011A000A831DCF8A80140F04002CCF8A82102E701
:1011B000FCA9F1D24D62503FC80000103001001070
:1011C000B46C0000AFF3008038B54C1F032C0D4603
:1011D0002AD8042A13D8DFE802F01B1E21240300BA
:1011E00003220121013B012B28D844EA830444EA6D
:1011F000C10C00684CEA0212D1B2017338BD10492B
:10120000104D2C68E06801F0BBFA0120FFF768FC84
:1012100000221146E6E700220121E3E70122114600
:10122000E0E702220121DDE7064B074918682A465C
:10123000C06801F0A5FA0120FFF752FC0349DFE77F
:10124000006D000030010010C06C0000206D000037
:101250002DE9F8430F4605468D493846164600F0FD
:10126000A1F98C490446304600F09CF9014620461D
:1012700000F080F9431C044600F001810023C4F211
:101280000103984228606CD034D94FF40042C4F274
:101290000902904200F0BD804FF44041C4F20901C0
:1012A00088422DD14FF4404CC4F20F0CDCF8C4003E
:1012B0004FF0010840F00072CCF8C42084F8088098
:1012C000296800244C6028464FF41651FFF748FE69
:1012D0002846224643460821FFF776FF38466C49E8
:1012E00000F022F930466B4900F01EF903236B60D1
:1012F000BDE8F8834FF44040C4F20000844258D067
:101300004FF0010884F808802B684FF000094FF473
:101310001651C3F804902846FFF722FE4A4643467A
:1013200008212846FFF750FF3846594900F0FCF8DD
:101330003046584900F0F8F8CC46C4F2010C644538
:1013400033D000F28E804FF44040C4F2000084425B
:1013500053D04FF4404EC4F2000E74454FD0BDE858
:10136000F8834FF4404CC4F20F0CDCF8C4004FF08B
:10137000010840F01002CCF8C42084F808802968E5
:1013800000244C6028464FF41651FFF7E9FD28462B
:10139000224643460821FFF717FF38463C4900F034
:1013A000C3F830463B4900F0BFF801236B60BDE84D
:1013B000F8834FF44042C4F20F02D2F8C4104FF049
:1013C000010841F00803C2F8C43084F80880286896
:1013D000002444604FF416512846FFF7C1FD28460B
:1013E000224643460821FFF7EFFE3846284900F021
:1013F0009BF83046274900F097F800246C60264B94
:1014000026480124294608221C60BDE8F84301F063
:1014100049BA4FF4404EC4F20F0EDEF8C4004FF04C
:10142000010840F08072CEF8C42084F80880296852
:1014300000244C6028464FF41651FFF791FD2846D2
:10144000224643460821FFF7BFFE3846104900F008
:101450006BF830460F4900F067F802236B60BDE877
:10146000F8834FF40042C4F209029442F5D04FF4DD
:101470004041C4F209018C427FF46BAF36E7084D5E
:1014800008492E68F06801F07BF90120FFF728FB7E
:101490005C6D0000486C0000840300109403001091
:1014A000300100103C6D00000268137DD907FCD5A7
:1014B000107870470268137D03F02000C3B2002B40
:1014C000F9D0C9B211707047154930B40A68FAB939
:1014D0004FF44040C4F20F00D0F8C45001244FF440
:1014E00080430C60C4F209030E4945F40005C0F8BE
:1014F000C4501A6708684DF6836C8208C4F21B3C1E
:10150000ACFB0201880C421E02215960DA605C606B
:101510004FF48043C4F20903986830BC704700BFA1
:1015200088030010C8000010431C10B5044613D0F7
:101530000B68581C04D110E051F80C3F5A1C0CD019
:101540009C42F9D120468968FFF7A8FC2046022179
:10155000BDE81040FFF7C4BC10BD04480449026850
:10156000D06801F00DF90120FFF7BAFA3001001040
:10157000C86D0000884208B503D0421C02D001317A
:1015800002D108BD084608BD044B05491868C0686B
:1015900001F0F6F80120FFF7A3FA00BF30010010B8
:1015A000DC6D000008B5431C0BD00B685A1C04D13D
:1015B00008E051F80C3F5A1C04D09842F9D1486811
:1015C00008BD08BD044805490268D06801F0D8F894
:1015D0000120FFF785FA00BF30010010F06D000018
:1015E000002201604260704708B5036801460BB1F4
:1015F000984708BD406810B18A690831904708BD16
:101600002DE9F04F0E4685B019468346904699461F
:101610000E9D109F119C00F0F9F8824680B1002EBB
:10162000256084F8048006DBAD19AF4214BF0127A2
:101630000627A7710CE0B31C0AD10120A07107E0B6
:10164000BD4207D158460F9900F0E0F880B901E09B
:10165000002010E0DBF808000F9A03680192009563
:1016600002970394DC69314642464B46A04702E0AC
:1016700084F80580504605B0BDE8F08F034B10B5E7
:101680000446036000F06AF8204610BD186E0000A2
:1016900010B50446FFF7F2FF204600F02DF8204673
:1016A00010BDF8B504460F4616461D4600F049F831
:1016B00038B9A068394604683246A4692B46A04769
:1016C000F8BD0120F8BD2DE9F341089C074694427E
:1016D000884616461D4605D1194600F097F808B110
:1016E000062007E0B8684146036800941C6A324649
:1016F0002B46A047BDE8FC8108B101F081B87047D6
:101700007FB5154602680024102302939669009461
:101710008DF8044003942A686B46B0479DF8040096
:1017200000F00601062903D1009B01202B6000E098
:10173000204604B070BD0098904214BF01200620DE
:10174000704738B515461C4600F060F828B10620F1
:10175000082320712560E360012038BD034B10B5DC
:101760000446036000F03CF8204610BD806E000087
:1017700010B50446FFF7F2FF2046FFF7BDFF2046F5
:1017800010BD2DE9F041069E1546089A074696427F
:101790009846099C03D1079900F038F848B93846B3
:1017A000414600F033F828B1012326602571A3716A
:1017B00000E065710020BDE8F081F8B505460C46F3
:1017C00016461F4600F022F840B9032F07D82368B9
:1017D00020465B69294632469847F8BD0120F8BD8E
:1017E000014B0360704700BFF86E00000020704797
:1017F0000020704700207047034B10B5044603607B
:10180000FFF77AFF204610BDF86E0000814208B550
:101810000ED0406803782A2B01D1002008BD49680A
:101820000A782A2A08BF013101F0D9F80028F4D13A
:10183000012008BDFFF7EABF81F0004102E000BFD0
:1018400083F0004330B54FEA41044FEA430594EA80
:10185000050F08BF90EA020F1FBF54EA000C55EABB
:10186000020C7FEA645C7FEA655C00F0E2804FEA8C
:101870005454D4EB5555B8BF6D420CDD2C4480EA6E
:10188000020281EA030382EA000083EA010180EA9E
:10189000020281EA0303362D88BF30BD11F0004FEC
:1018A0004FEA01314FF4801C4CEA113102D0404222
:1018B00061EB410113F0004F4FEA03334CEA13335D
:1018C00002D0524263EB430394EA050F00F0A78075
:1018D000A4F10104D5F1200E0DDB02FA0EFC22FA70
:1018E00005F2801841F1000103FA0EF2801843FA64
:1018F00005F359410EE0A5F120050EF1200E012A55
:1019000003FA0EFC28BF4CF0020C43FA05F3C01892
:1019100051EBE37101F0004507D54FF0000EDCF10B
:10192000000C7EEB00006EEB0101B1F5801F1BD3B4
:10193000B1F5001F0CD349085FEA30004FEA3C0CB8
:1019400004F101044FEA445212F5800F80F09A80AE
:10195000BCF1004F08BF5FEA500C50F1000041EBB2
:10196000045141EA050130BD5FEA4C0C404141EBB6
:10197000010111F4801FA4F10104E9D191F0000FDD
:1019800004BF01460020B1FA81F308BF2033A3F160
:101990000B03B3F120020CDA0C3208DD02F1140C57
:1019A000C2F10C0201FA0CF021FA02F10CE002F192
:1019B0001402D8BFC2F1200C01FA02F120FA0CFC8B
:1019C000DCBF41EA0C019040E41AA2BF01EB0451D4
:1019D000294330BD6FEA04041F3C1CDA0C340EDCD2
:1019E00004F11404C4F1200220FA04F001FA02F315
:1019F00040EA030021FA04F345EA030130BDC4F1D3
:101A00000C04C4F1200220FA02F001FA04F340EAC7
:101A10000300294630BD21FA04F0294630BD94F078
:101A2000000F83F4801306BF81F480110134013D5F
:101A30004EE77FEA645C18BF7FEA655C29D094EAD0
:101A4000050F08BF90EA020F05D054EA000C04BF4E
:101A50001946104630BD91EA030F1EBF0021002039
:101A600030BD5FEA545C05D14000494128BF41F0D8
:101A7000004130BD14F580043CBF01F5801130BD3C
:101A800001F0004545F0FE4141F470014FF00000C7
:101A900030BD7FEA645C1ABF194610467FEA655C78
:101AA0001CBF0B46024650EA013406BF52EA03351A
:101AB00091EA030F41F4002130BD00BF90F0000F08
:101AC00004BF0021704730B54FF4806404F1320444
:101AD0004FF000054FF0000150E700BF90F0000FFD
:101AE00004BF0021704730B54FF4806404F1320424
:101AF00010F0004548BF40424FF000013EE700BFF4
:101B000042004FEAE2014FEA31014FEA02701FBF83
:101B100012F07F4393F07F4F81F06051704792F055
:101B2000000F14BF93F07F4F704730B54FF46074CF
:101B300001F0004521F0004120E700BF50EA01021A
:101B400008BF704730B54FF000050AE050EA0102C7
:101B500008BF704730B511F0004502D5404261EB37
:101B600041014FF4806404F132045FEA915C3FF478
:101B7000DCAE4FF003025FEADC0C18BF03325FEA11
:101B8000DC0C18BF033202EBDC02C2F1200300FAC6
:101B900003FC20FA02F001FA03FE40EA0E0021FAEB
:101BA00002F11444C1E600BF70B54FF0FF0C4CF4D5
:101BB000E06C1CEA11541DBF1CEA135594EA0C0F8B
:101BC00095EA0C0F00F0DEF82C4481EA030621EAC6
:101BD0004C5123EA4C5350EA013518BF52EA033501
:101BE00041F4801143F4801338D0A0FB02CE4FF0B3
:101BF0000005E1FB02E506F00042E0FB03E54FF0E3
:101C00000006E1FB03569CF0000F18BF4EF0010EDA
:101C1000A4F1FF04B6F5007F64F5407404D25FEAD6
:101C20004E0E6D4146EB060642EAC62141EA555189
:101C30004FEAC52040EA5E504FEACE2EB4F1FD0CCB
:101C400088BFBCF5E06F1ED8BEF1004F08BF5FEA49
:101C5000500E50F1000041EB045170BD06F00046FB
:101C600046EA010140EA020081EA0301B4EB5C04A8
:101C7000C2BFD4EB0C0541EA045170BD41F48011A0
:101C80004FF0000E013C00F3AB8014F1360FDEBFC5
:101C9000002001F0004170BDC4F10004203C35DAA1
:101CA0000C341BDC04F11404C4F1200500FA05F324
:101CB00020FA04F001FA05F240EA020001F00042C5
:101CC00021F0004110EBD37021FA04F642EB06013B
:101CD0005EEA430E08BF20EAD37070BDC4F10C0465
:101CE000C4F1200500FA04F320FA05F001FA04F229
:101CF00040EA020001F0004110EBD37041F1000115
:101D00005EEA430E08BF20EAD37070BDC4F120051F
:101D100000FA05F24EEA020E20FA04F301FA05F287
:101D200043EA020321FA04F001F0004121FA04F22F
:101D300020EA020000EBD3705EEA430E08BF20EAFF
:101D4000D37070BD94F0000F0FD101F00046400039
:101D500041EB010111F4801F08BF013CF7D041EABB
:101D6000060195F0000F18BF704703F000465200BF
:101D700043EB030313F4801F08BF013DF7D043EA90
:101D80000603704794EA0C0F0CEA135518BF95EA46
:101D90000C0F0CD050EA410618BF52EA4306D1D1CD
:101DA00081EA030101F000414FF0000070BD50EAEC
:101DB000410606BF1046194652EA430619D094EA76
:101DC0000C0F02D150EA013613D195EA0C0F05D160
:101DD00052EA03361CBF104619460AD181EA0301B4
:101DE00001F0004141F0FE4141F470014FF000006C
:101DF00070BD41F0FE4141F4780170BD70B54FF007
:101E0000FF0C4CF4E06C1CEA11541DBF1CEA135586
:101E100094EA0C0F95EA0C0F00F0A7F8A4EB050468
:101E200081EA030E52EA03354FEA013100F088805F
:101E30004FEA03334FF0805545EA131343EA126328
:101E40004FEA022245EA111545EA10654FEA0026DD
:101E50000EF000419D4208BF964244F1FD0404F596
:101E6000407402D25B084FEA3202B61A65EB0305F2
:101E70005B084FEA32024FF480104FF4002CB6EBAF
:101E8000020E75EB030E22BFB61A754640EA0C002F
:101E90005B084FEA3202B6EB020E75EB030E22BF6F
:101EA000B61A754640EA5C005B084FEA3202B6EBB0
:101EB000020E75EB030E22BFB61A754640EA9C006F
:101EC0005B084FEA3202B6EB020E75EB030E22BF3F
:101ED000B61A754640EADC0055EA060E18D04FEAFD
:101EE000051545EA16754FEA06164FEAC30343EA9D
:101EF00052734FEAC2025FEA1C1CC0D111F4801F6A
:101F00000BD141EA00014FF000004FF0004CB6E762
:101F100011F4801F04BF01430020B4F1FD0C88BF01
:101F2000BCF5E06F3FF6AFAEB5EB030C04BFB6EB0C
:101F3000020C5FEA500C50F1000041EB045170BDFF
:101F40000EF0004E4EEA113114EB5C04C2BFD4EB2C
:101F50000C0541EA045170BD41F480114FF0000EB0
:101F6000013C90E645EA060E8DE60CEA135594EA2C
:101F70000C0F08BF95EA0C0F3FF43BAF94EA0C0F2F
:101F80000AD150EA01347FF434AF95EA0C0F7FF4A4
:101F900025AF104619462CE795EA0C0F06D152EAF8
:101FA00003353FF4FDAE1046194622E750EA4106DC
:101FB00018BF52EA43067FF4C5AE50EA41047FF4ED
:101FC0000DAF52EA43057FF4EBAE12E74FF0FF3C52
:101FD00006E000BF4FF0010C02E000BF4FF0010C23
:101FE0004DF804CD4FEA410C7FEA6C5C4FEA430C9C
:101FF00018BF7FEA6C5C1BD001B050EA410C0CBFEB
:1020000052EA430C91EA030F02BF90EA020F00204C
:10201000704710F1000F91EA030F58BF994208BFB3
:1020200090422CBFD8176FEAE37040F00100704770
:102030004FEA410C7FEA6C5C02D150EA013C07D1C7
:102040004FEA430C7FEA6C5CD6D152EA033CD3D012
:102050005DF8040B704700BF8446104662468C460C
:102060001946634600E000BF01B5FFF7B7FF00283F
:1020700048BF10F1000F01BD4DF808EDFFF7F4FF68
:102080000CBF012000205DF808FB00BF4DF808EDF3
:10209000FFF7EAFF34BF012000205DF808FB00BF16
:1020A0004DF808EDFFF7E0FF94BF012000205DF838
:1020B00008FB00BF4DF808EDFFF7CEFF94BF0120ED
:1020C00000205DF808FB00BF4DF808EDFFF7C4FFE6
:1020D00034BF012000205DF808FB00BF4FEA410239
:1020E00012F5001215D211D56FF47873B3EB62526A
:1020F00012D94FEAC12343F0004343EA505311F091
:10210000004F23FA02F018BF404270474FF0000022
:10211000704750EA013005D111F0004008BF6FF060
:10212000004070474FF00000704700BF4FEA410287
:10213000B2F1E04324BFB3F5001CDCF1FE5C0DD925
:1021400001F0004C4FEAC0024CEA5070B2F1004F6F
:1021500040EB830008BF20F00100704711F0804F72
:1021600021D113F13872BCBF01F00040704741F437
:1021700080114FEA5252C2F11802C2F1200C10FA3B
:102180000CF320FA02F018BF40F001004FEAC1231F
:102190004FEAD32303FA0CFC40EA0C0023FA02F3C3
:1021A0004FEA4303CCE77FEA625307D150EA013399
:1021B0001EBF4FF0FE4040F44000704701F0004069
:1021C00040F0FE4040F40000704700BF80F0004047
:1021D00002E000BF81F0004142001FBF5FEA4103FF
:1021E00092EA030F7FEA226C7FEA236C6AD04FEAFF
:1021F0001262D2EB1363C1BFD21841404840414044
:10220000B8BF5B42192B88BF704710F0004F40F4F5
:10221000000020F07F4018BF404211F0004F41F411
:10222000000121F07F4118BF494292EA030F3FD0DD
:10223000A2F1010241FA03FC10EB0C00C3F12003F0
:1022400001FA03F100F0004302D5494260EB40007F
:10225000B0F5000F13D3B0F1807F06D340084FEAEA
:10226000310102F10102FE2A51D2B1F1004F40EBDF
:10227000C25008BF20F0010040EA03007047490047
:1022800040EB000010F4000FA2F10102EDD1B0FA12
:1022900080FCACF1080CB2EB0C0200FA0CF0AABF07
:1022A00000EBC25052421843BCBFD04018437047A5
:1022B00092F0000F81F4000106BF80F400000132AB
:1022C000013BB5E74FEA41037FEA226C18BF7FEA82
:1022D000236C21D092EA030F04D092F0000F08BFC4
:1022E0000846704790EA010F1CBF0020704712F0AB
:1022F0007F4F04D1400028BF40F00040704712F1EA
:1023000000723CBF00F50000704700F0004343F04E
:10231000FE4040F4000070477FEA226216BF084684
:102320007FEA23630146420206BF5FEA412390EA47
:10233000010F40F4800070474FF0000304E000BF3D
:1023400010F0004348BF40425FEA000C08BF7047EE
:1023500043F0964301464FF000001CE050EA0102B2
:1023600008BF70474FF000030AE000BF50EA0102C7
:1023700008BF704711F0004302D5404261EB4101B4
:102380005FEA010C02BF84460146002043F0B643D9
:1023900008BFA3F18053A3F50003BCFA8CF2083AFE
:1023A000A3EBC25310DB01FA02FC634400FA02FC07
:1023B000C2F12002BCF1004F20FA02F243EB02000E
:1023C00008BF20F00100704702F1200201FA02FC70
:1023D000C2F1200250EA4C0021FA02F243EB020063
:1023E00008BF20EADC7070474FF0FF0C1CEAD052A7
:1023F0001EBF1CEAD15392EA0C0F93EA0C0F6FD068
:102400001A4480EA010C400218BF5FEA41211ED045
:102410004FF0006343EA501043EA5111A0FB013131
:102420000CF00040B1F5000F3EBF490041EAD37106
:102430005B0040EA010062F17F02FD2A1DD8B3F182
:10244000004F40EBC25008BF20F00100704790F0F1
:10245000000F0CF0004C08BF49024CEA502040EA43
:1024600051207F3AC2BFD2F1FF0340EAC250704709
:1024700040F400004FF00003013A5DDC12F1190F47
:10248000DCBF00F000407047C2F10002410021FAB9
:1024900002F1C2F1200200FA02FC5FEA310040F1D1
:1024A000000053EA4C0308BF20EADC70704792F04A
:1024B000000F00F0004C02BF400010F4000F013A82
:1024C000F9D040EA0C0093F0000F01F0004C02BF7D
:1024D000490011F4000F013BF9D041EA0C018FE7EC
:1024E0000CEAD15392EA0C0F18BF93EA0C0F0AD0F2
:1024F00030F0004C18BF31F0004CD8D180EA010018
:1025000000F00040704790F0000F17BF90F0004FB0
:10251000084691F0000F91F0004F14D092EA0C0F92
:1025200001D142020FD193EA0C0F03D14B0218BF25
:10253000084608D180EA010000F0004040F0FE406B
:1025400040F40000704740F0FE4040F44000704707
:102550004FF0FF0C1CEAD0521EBF1CEAD15392EA86
:102560000C0F93EA0C0F69D0A2EB030280EA010C76
:1025700049024FEA402037D04FF0805343EA11110F
:1025800043EA10130CF000408B4238BF5B0042F16D
:102590007D024FF4000C8B4224BF5B1A40EA0C0012
:1025A000B3EB510F24BFA3EB510340EA5C00B3EB44
:1025B000910F24BFA3EB910340EA9C00B3EBD10F32
:1025C00024BFA3EBD10340EADC001B0118BF5FEA84
:1025D0001C1CE0D1FD2A3FF650AF8B4240EBC250AD
:1025E00008BF20F0010070470CF0004C4CEA50206E
:1025F0007F32C2BFD2F1FF0340EAC250704740F4BD
:1026000000004FF00003013A37E792F0000F00F0AE
:10261000004C02BF400010F4000F013AF9D040EA2C
:102620000C0093F0000F01F0004C02BF490011F4C0
:10263000000F013BF9D041EA0C0195E70CEAD153B8
:1026400092EA0C0F08D142027FF47DAF93EA0C0F9F
:102650007FF470AF084676E793EA0C0F04D14B0283
:102660003FF44CAF08466EE730F0004C18BF31F035
:10267000004CCAD130F000427FF45CAF31F000432F
:102680007FF43CAF5FE700BF4FF0FF3C06E000BFC8
:102690004FF0010C02E000BF4FF0010C4DF804CDEB
:1026A0004FEA40024FEA41037FEA226C18BF7FEAFB
:1026B000236C11D001B052EA530C18BF90EA010FFD
:1026C00058BFB2EB030088BFC81738BF6FEAE1708C
:1026D00018BF40F0010070477FEA226C02D15FEA28
:1026E000402C05D17FEA236CE4D15FEA412CE1D094
:1026F0005DF8040B704700BF844608466146FFE75B
:102700000FB5FFF7C9FF002848BF10F1000F0FBD3C
:102710004DF808EDFFF7F4FF0CBF012000205DF835
:1027200008FB00BF4DF808EDFFF7EAFF34BF0120BA
:1027300000205DF808FB00BF4DF808EDFFF7E0FF53
:1027400094BF012000205DF808FB00BF4DF808EDA4
:10275000FFF7D2FF94BF012000205DF808FB00BF07
:102760004DF808EDFFF7C8FF34BF012000205DF8E9
:1027700008FB00BF014B1868704700BF3001001014
:102780000EB403B5014603AB054853F8042B0068AB
:10279000019300F065F9BDE80C4003B0704700BF3D
:1027A0003001001038B50E4D0E4B0024E81A85108C
:1027B000AC4205D00B4951F8242090470134F7E78B
:1027C00004F0F4F90849094A541AA5100024AC424F
:1027D00005D0054B53F8240080470134F7E738BD96
:1027E0009801001098010010980100109C01001041
:1027F000024B0146186800F00BB800BF3001001012
:10280000024B0146186802F01BB900BF30010010EE
:1028100070B5CD1C25F0030508350C2D38BF0C25EF
:10282000002D06462DDB8D422BD31D4B1B681C460D
:102830009CB12268501B0DD40B2802D920602418AB
:1028400017E0A34203D16068154A10601DE061687B
:1028500059601AE023466468EAE72946304600F0EA
:1028600069F8431C01460CD0CC1C24F003048C42B4
:1028700001D1256009E03046611A00F05BF80130B3
:10288000F7D10C203060002070BD04F10B01231D36
:1028900021F00700C31A02D05A42E25070BD70BD49
:1028A0008C03001010B50023934203D0CC5CC454B9
:1028B0000133F9E710BD82180346934202D003F8B2
:1028C000011BFAE7704700000FB40A4B13B51C68F0
:1028D00024B1A06910B9204602F04AF805AB2046A1
:1028E000A168049A019300F0BBF8BDE81C4004B055
:1028F000704700BF300100100D4B10B5044618683A
:1029000018B182690AB902F033F8013C084814F89A
:10291000011F006829B1826802F050FD421CF5D108
:1029200010BD82680A21BDE8104002F047BD00BF1B
:102930003001001038B5064C0023054608462360D8
:1029400004F020F9431C02D1216801B1296038BD8F
:102950009C03001010B50C46B1F90E1002F06CFD8E
:10296000002803DB626D1318636510BDA38923F48F
:102970008051A18110BD2DE9F0411D468B890C4687
:1029800003F4807116460AB207462AB1B4F90E1054
:102990000022022302F09CF8A089B4F90E1020F462
:1029A0008053A381384632462B46BDE8F04101F002
:1029B00021B810B50C46B1F90E1002F089F8431C8D
:1029C000A38903D123F48052A28110BD43F4805126
:1029D000A181606510BDB1F90E1001F093B810F837
:1029E000012B11F8013B012A28BF9A42F7D0A2EB34
:1029F00003007047034613F8012B002AFBD1181A75
:102A00000138704770B592B10B4605461AB928785F
:102A10001978401A70BD10F8016B1C780131B4426E
:102A2000F5D1012AF3D0013A002CEDD1EFE71046A1
:102A300070BD936810B5013B002B936005DA946973
:102A4000A34208DBCBB20A2B05D01368C8B203F847
:102A5000011B136010BDBDE8104000F071BF000005
:102A60002DE9F0479CB00D4614460393064618B175
:102A700083690BB901F07CFF7C48854201D1756800
:102A800008E07B498D4201D1B56803E0794A95425F
:102A900008BFF568AB8903F0080001B251B12A699B
:102AA00042B100272023302009978DF829308DF876
:102AB0002A003CE03046294600F0AEFF0028F0D066
:102AC0004FF0FF30CEE003980768021D002F0392FD
:102AD0007DDB0797013420782E2800F08A80664F2E
:102AE00021783846032202F059F838B1C71B40213B
:102AF00001FA07F1049B01340B43049314F8011B02
:102B00005E4806228DF8281002F048F8002800F0F0
:102B100094805B4A002A40F08780039FFB1D23F0CE
:102B2000070008300390099A02EB08010991214639
:102B30000F4611F8012B2AB9B7EB040A15D04FF054
:102B400000090CE0252AF3D1F6E7304614F8091005
:102B50002A46FFF76EFF01307CD009F10109D1450B
:102B6000F3DB099B03EB0A0009903978002971D047
:102B700000244FF0FF3204940794059206948DF8D8
:102B800053401A9407F101093E4F4C4638462178CC
:102B9000052202F003F809F10109049B30B1C41BBE
:102BA000012707FA04F73B430493EDE7D90602D562
:102BB00020208DF853001A0702D52B218DF85310D1
:102BC00022782A2A3FF47FAF079B274605E0794207
:102BD00043F00203079104937CE73C4621780137D8
:102BE0003039092903D80A2404FB0313F5E70793B6
:102BF00071E762782A2A09D1039802340368021D1A
:102C0000002B0392B8BF4FF0FF330BE0671C00238B
:102C10003C46217801373039092903D80A2404FBBE
:102C20000313F5E705935AE703A90091304604A979
:102C30002A46154B00F0C2F807E003A8009004A94B
:102C400030462A46104B00F07BFBB0F1FF3F804638
:102C50007FF469AFAB8903F0400002B2002A7FF431
:102C60002FAF09981CB0BDE8F08700BF707000005E
:102C700090700000B07000001E6F0000226F000016
:102C8000BD2D0000186F0000332A00002DE9D04F41
:102C90001E4688B012AB002E9246109F93E818088B
:102CA00003DA06F100462D2100E00021BBF1660F9A
:102CB00019700AD0BBF1460F07D0BBF1650F02D0E7
:102CC000BBF1450F03D1013701E0032300E00223EC
:102CD0008DE8880007AA06AB03930492029452463B
:102CE000334600F0ADFFBBF1670F804602D0BBF169
:102CF000470F02D11198C30728D5BBF1660F08EB27
:102D0000070902D0BBF1460F0FD198F80010302907
:102D100009D15046314600220023FFF7ADF910B922
:102D2000C7F10107276023689944504631460022C5
:102D30000023FFF7A1F908B1CDF81C90079848458A
:102D400004D2302200F8012B0790F7E7079A159B71
:102D5000C8EB02011960404608B0BDE8D08F73B5DA
:102D60000346002903F8022B02DA49422D2200E033
:102D70002B22092942701A4619DD0DF106040A2694
:102D800091FBF6F506FB15113031092D234604F8A9
:102D900001192946F3DC303103F8011D0DF107015B
:102DA0008B4209D213F8011B02F8011BF6E730220F
:102DB00089181A7059709A1C101A7CBD2DE9F04FB1
:102DC00091B00C4616461F46DDF86880054601F0B6
:102DD0007BFED0F800A05046FFF70CFE0B90D8F811
:102DE00000000023C11D0E9321F0070303F1080228
:102DF00094F818B0C8F80020D3E90001C4E9120122
:102E0000D4E9120102F04EFB0128D4E9120117D1D6
:102E100000220023FFF73AF910B12D2284F8432055
:102E20009A489B49BBF1470F8CBF88468046206873
:102E3000032320F00401236121604FF0000986E0A4
:102E400002F030FB10B993489349EBE761684A1CE4
:102E500001D1062307E0BBF1670F02D0BBF1470F9A
:102E600002D109B9012363602268606842F480617D
:102E70008DE80300D4E9122321600DF133000DA980
:102E8000029003910EA800210590CDF810B0069194
:102E90002846FFF7FBFEBBF1670F804602D0BBF16F
:102EA000470F09D10D9BD81C02DB6268934231DDCC
:102EB000ABF1020C5FFA8CFBBBF1650F0D9812D8D9
:102EC000411E5A4604F150000D91FFF748FF0E9A3B
:102ED00081468318012A236102DC2068C10730D5AE
:102EE000591C21612DE0BBF1660F15D100286368E4
:102EF00008DD206113B92268D2071ED50133C0183E
:102F000020611AE013B92168C80701D59A1C13E0A3
:102F1000012211E04FF0670B0D9B0E998B4205DBF0
:102F200020682361C10708D55A1C05E0002BD4BFD7
:102F3000C3F102030123CA1822610D994FF0000961
:102F4000A1659DF8332012B12D2384F843300097FA
:102F5000284621460FAA334600F082F9013002D1FB
:102F60004FF0FF3079E1236813F480620DD1914670
:102F70002069814522DA284618F809103246B847F8
:102F80000130EDD009F10109F2E7BBF1650F40F224
:102F9000F180D4E9120100220023FFF76DF8002828
:102FA0002DD0302128463246B8470130D8D00E9B6C
:102FB0000D9A9A4207DB2068C30704D421688A0768
:102FC00000F1488140E10B990AEB010BDA4507D08B
:102FD00028461AF8011B3246B8470130F6D1BFE740
:102FE0004FF000080E9B5A1E9045E7DA2846A17E56
:102FF0003246B8470130B3D008F10108F2E70D9826
:10300000002838DC302128463246B8470130A7D0A6
:103010000D9A22B90E9810B92168C807CED50B9B1E
:103020000AEB030BDA4507D028461AF8011B324693
:10303000B8470130F6D193E74FF000090D9A50429E
:10304000814508DA2846A17E3246B847013087D04C
:1030500009F10109F2E74FF000090E998945ADDA4F
:10306000284618F809103246B84701303FF478AFC7
:1030700009F10109F1E7A16D0E9B8B42B4BF9C469B
:103080008C46BCF1000F09DC002329E0296F000009
:103090002D6F0000316F0000356F0000C1460CEB52
:1030A000080319F8011B28460993CDF828C03246B9
:1030B000B8470130099BDDF828C03FF451AF99456E
:1030C000EFD1E1E7A17ECDF828C02846324609932A
:1030D000B84701300999DDF828C03FF441AF4B1CD7
:1030E000D4F858902CEAEC72C2EB09008342E9DB79
:1030F0000E990D9B8B420FDB2268D1070CD40E99E1
:103100000D9BC844CA1AC9EB01099145A8BF914655
:10311000B9F1000F0DDC18E00B980AEB000BDA4553
:10312000EDD028461AF8011B3246B8470130F6D1D7
:1031300016E708EB090A284618F8011B3246B8477B
:1031400001303FF40DAFD045F5D14FF0000808E055
:103150002846A17E3246B84701303FF401AF08F15E
:1031600001080D980E9929EAE9720B1A981A804500
:10317000EEDB23E70E9898F8001001280ADCDA0746
:1031800008D428463246B84701303FF4E9AE4FF044
:10319000000848E028463246B84701303FF4E0AE28
:1031A0000B990AEB010BDA4507D028461AF8011BE8
:1031B0003246B8470130F6D1D2E6D4E912010022F6
:1031C0000023FEF759FF10B14FF000081AE04FF04E
:1031D000000A0E98411E8A45D9DA08EB0A02517896
:1031E00028463246B84701303FF4BAAE0AF1010A28
:1031F000EFE72846A17E3246B84701303FF4B0AE33
:1032000008F101080E9B5A1E9045F2DBBFE704EB64
:103210000803284693F850103246B84701303FF46F
:103220009FAE08F10108C845F1DBC7E62846617E7C
:103230003246B84701303FF493AE08F10108E26826
:103240000F9BD01A8045F1DBE0680F998842B8BF28
:10325000084602E04FF00008F1E711B0BDE8F08F3A
:103260002DE9F047154699468A680B6980469A42CF
:10327000A8BF13462B6091F843000C46DDF820A050
:1032800008B1591C29602668B20602D52A68931C29
:103290002B60206810F0060618D094F84370206860
:1032A0003E1C18BF012683061AD5A119302281F8C9
:1032B000432094F84530023681F8443010E040460F
:1032C000617E4A46D047013006D00136E1682A685F
:1032D0008B1A9E42F3DBE0E74FF0FF30BDE8F0874A
:1032E0000027B74209DAE119404691F843104A46EF
:1032F000D0470130F0D00137F3E721682868E6684D
:1033000001F00602042A08BFC0EB06052369A6687F
:103310000CBF25EAE57500259E42C4BFC3EB06033A
:10332000ED180026AE4207DA4046A17E4A46D04755
:103330000130D1D00136F5E70020BDE8F08700006C
:103340002DE9F0430C46257E85B06E2D904607464C
:1033500099460C9904F1430200F0AA8012D8632D1B
:1033600024D009D8002D00F0BB80582D40F0CB8030
:1033700084F84550824D57E0642D20D0692D40F0EF
:10338000C2801CE0732D00F0AF8009D86F2D2FD0C4
:10339000702D40F0B880256845F0200626603FE09B
:1033A000752D25D0782D40F0AE8039E0086804F105
:1033B0004206021D0A60016884F84210A7E02068F6
:1033C0000B6810F0800F02D01E1D0E6008E003F1A4
:1033D000040510F0400F0D6002D0B3F9001000E0BA
:1033E000196800293CDA2D20494284F8430037E06F
:1033F00025680E6815F0800F02D0331D0B6007E0C2
:1034000006F1040015F0400F086001D0318800E09B
:103410003168267E5A4D6F2E14BF0A2308231BE005
:103420007820584D84F8450020680B6810F0800F14
:1034300003F104060E6003D1410601D5198800E0AE
:103440001968C60744BF40F02000206019B9206801
:1034500020F0200323601023002084F8430001E0C3
:10346000474D0A236668002EA66003DB206820F023
:103470000400206001B96EB104F14200B1FBF3FE1B
:1034800003FB1E11695C064600F80119714600290C
:10349000F4D100E01646921B082B22613CD1236830
:1034A000D80739D56068904236DC511C616033E042
:1034B00026680B6816F0800F05D01E1D0E60196877
:1034C000606908600CE003F1040016F0400F08602A
:1034D00003D018686369038002E061691E68316087
:1034E00000232361164617E00E68321D0A60366815
:1034F0003046FFF77FFA63682061984288BF2361F6
:103500002069606005E004F1420684F8425001231E
:103510002361002184F84310CDF8009038462146FD
:1035200003AA4346FFF79CFE013002D14FF0FF3063
:1035300022E000252269954207DA3846715D42464D
:10354000C8470130F2D00135F4E72168890705D476
:10355000E06803998842B8BF08460DE00025E0689E
:10356000039BC21A9542F3DA3846617E4246C84749
:103570000130DBD00135F2E705B0BDE8F08300BFD4
:10358000396F00004A6F00002DE9F04F87B00393B8
:103590008B6816465A1EB2F5AE7F07460C4607D911
:1035A0006FF4AE7040F25D1103EB000CA16001E01E
:1035B0004FF0000C2568A04645F4F06348F81C3B2A
:1035C0000025C3462A46A9460595AA460495A16842
:1035D000002900F0DF80306803784E2B5CD01DD8C6
:1035E000392B0FD8312B47D22E2B00F0908005D8E5
:1035F0002B2B49D02D2B40F0CD8045E0302B40F0D7
:10360000C98028E0452B00F08B8003D8412B40F087
:10361000C18056E0462B6ED0492B13E0662B6AD052
:103620000CD8592B6FD003D8542B40F0B38066E0F0
:10363000612B46D0652B40F0AD8071E06E2B2BD016
:1036400003D8692B40F0A6803FE0742B57D0792B2C
:1036500040F0A08057E0206810F4807F0CD020F06C
:10366000800323600AF1010ABCF1000F75D001311B
:103670000CF1FF3CA16070E05119002940F08A80F4
:10368000206820F4C07005E02168080640F18280BF
:1036900021F0800020605EE06AB9BAF1000F0CD121
:1036A000216801F4E060B0F5E06F06D121F4F0622A
:1036B000226001224FE0022A4CD0012D18D0042DA7
:1036C00015E0012A66D1022245E06DB9BAF1000F7A
:1036D00063D1216801F4E060B0F5E06F61D121F4BD
:1036E000F0652560012536E0032D01D0052D51D16F
:1036F0000135EDB22FE0022D4CD103252BE0062D34
:1037000048D1072527E0072D44D1082523E021686B
:1037100088053FD521F420702060CDF810A01AE074
:10372000216801F4A060B0F5806F04D0480531D560
:10373000BAF1000F35D0880504D40498D946C0EBFF
:103740000A00059021F4F06141F4C07020604FF050
:10375000000A00E003220BF8013BA3682069591E10
:10376000A1607168431C481E00282361706003DD5E
:103770003368591C31602AE70292CDF804C0D4F8AE
:103780008031384631469847029ADDF804C0002857
:103790003FF41DAFBAF1000F03D0216821F480700F
:1037A0002060531E012B11D8C3455A460CD912F87C
:1037B000011CD4F87C3138463246984721690BF118
:1037C000FF3B481E2061EFE70120B4E06A1E062A95
:1037D0002ED8022D1CD9DC46CBEB050101EB0C03E6
:1037E00003F0FF0003280ED91CF8011DD4F87C312A
:1037F000CDF804C03846324698472169DDF804C048
:10380000481E2061E8E7033DEDB2C5EB0B0B0FE06E
:10381000C3455946D8D93246D4F87C31384611F8D8
:10382000011C984720690BF1FF3B421E2261EFE724
:103830002168CA052ED54B050FD5C3455946C3D9B6
:103840003246D4F87C31384611F8011C984720697B
:103850000BF1FF3B421E2261EFE71BF8011C2269BE
:103860000BF1FF35531E652923610DD045290BD07F
:10387000D4F87C5132463846A84720691BF8021C10
:10388000421EABF102052261D4F87C313846324643
:103890009847AB46216811F010024BD18BF80020FD
:1038A000266806F4C065B5F5806F06D10498C0EBB4
:1038B0000A035A42A3B1D94608E0059E86B13846AC
:1038C00009F101010A2302F0E7FB821B04F26F11E8
:1038D000894528BF04F5B7794846184901F018FE14
:1038E00000223846414601F04FFE2268039D12F047
:1038F000020F06460F462B6802D0181D286006E00E
:10390000039D12F0040F03F104022A6003D019682A
:10391000C1E900670BE01D6801F0C4FD10B901F0BA
:10392000F3FD03E030463946FEF700FC2860E3680B
:103930005A1CE260002007B0BDE8F08F5B6F00000A
:1039400070B50E461446054618B183690BB901F0EF
:103950000FF82548844201D16C6808E023498C4265
:1039600001D1AC6803E0224A944208BFEC68A08908
:10397000A36900F008010AB2A3600AB123695BB928
:103980002846214600F048F830B1A689092046F0C3
:103990004002A28128600BE0206821696269401A18
:1039A0009042F6B207DB2846214600F0E9FE10B14E
:1039B0004FF0FF3615E0A3682268591EA16002F897
:1039C000016B636901309842226004D0A189CB0762
:1039D00007D50A2E05D12846214600F0D1FE002841
:1039E000E6D1304670BD00BF7070000090700000DE
:1039F000B070000038B5074C05460020206008462E
:103A000011461A46FDF716F9431C02D1236803B18B
:103A10002B6038BD9C030010364A70B5054610680F
:103A20000C46164618B1816909B900F0A1FF324B66
:103A30009C4202D1326854680CE03048844203D181
:103A40002C4B1868846805E02D4A944202D1294C19
:103A50002168CC68A18901F0080318B208BB01F005
:103A6000100213B213B94FF0FF3070BD01F0040122
:103A700008B290B1616B41B104F14402914202D0AD
:103A8000284600F0DDFF00236363A189236921F04C
:103A900024000022A08162602360A18941F0080017
:103AA000A08122694AB9A38903F42071B1F5007F8E
:103AB00003D02846214601F01DF8A08910F001022C
:103AC00005D0636900225942A260A16107E000F0BD
:103AD000020319B209B9606900E01046A0602069CC
:103AE00030B9A28902F0800318B20028BBD170BDA2
:103AF000002070BD30010010707000009070000058
:103B0000B070000038B5064C002305460846236017
:103B1000FDF77AF8431C02D1216801B1296038BD54
:103B20009C0300102DE9F74F0B69026905469A4284
:103B3000C0F28280D81C86008A1950685C1EAB19BE
:103B400002F104095A68461CB2FBF6F601F11408AA
:103B500005F11407002E3DD000203A46CDF8048030
:103B60008646019B53F804CB1FFA8CFA06FB0A0A1F
:103B70004FEA1C40019306FB00F303EB1A4C136859
:103B80004FEA1C401FFA83FBDE441FFA8CFC1FFA2D
:103B90008AFACAEB0E0ACCEB134303EB2A4C019BC7
:103BA0001FFA8AFA4FEA2C4E4B454AEA0C4C42F86F
:103BB00004CBD6D9221D05EB8203586850B9BB420D
:103BC0001A4601D82C6105E01068043B0028F9D1A1
:103BD000013CF4E7284601F045FA00282ADB0136CB
:103BE0003B46002058F804EB1A681FFA8EF11FFAC2
:103BF00082FAC1EB0A014FEA1E4C0918CCEB1240C5
:103C000000EB214289B2101441EA0242C84543F850
:103C1000042BE7D9231D05EB8303586850B9BB4239
:103C2000194601D82C6105E00A68043B002AF9D145
:103C3000013CF4E7304600E00020BDE8FE8F0000C4
:103C40002DE9F04F456A99B08346259CCDE90423C0
:103C500045B91020FEF7CCFDCBF824004560856007
:103C60000560C560DBF82430196861B1586801222D
:103C700002FA00F648608E60584600F0D2FFDBF88A
:103C8000241000270F60059B002B05DA012223F08A
:103C900000462260059601E000202060059F9A49B9
:103CA000994B394099421CD12499049B42F20F72DE
:103CB0000A603BB9954E9648C7F31307002F18BF0B
:103CC000304600E09148269E002E00F05285C278D2
:103CD00012B100F1080100E0C11C269E316000F025
:103CE00048BDDDE904450022204629460023FEF7B1
:103CF000C3F958B1249E01233360269E002E00F0A4
:103D0000358584483060013800F033BD17A816AA05
:103D100000900192584622462B4601F097FAC7F3CD
:103D20000A56824666B1204625F07F4424F4700589
:103D300045F07F5141F44011A6F2FF3600221CE00D
:103D4000179C169D6FF482612E198E420ADB724910
:103D5000049D06F212448B1B25FA04F007FA03F7C0
:103D6000384304E06D4B049A981B02FA00F0FDF70B
:103D7000A5FE013EA1F1F87101221592684B0022C7
:103D8000FDF75EFD5AA3D3E90023FDF70DFF5AA30B
:103D9000D3E90023FDF756FD044630460D46FDF7F6
:103DA0009DFE57A3D3E90023FDF7FEFE02460B4616
:103DB00020462946FDF746FD04460D46FEF78EF9DE
:103DC00029468146002220460023FEF75FF958B1BC
:103DD0004846FDF783FE02460B4620462946FEF77D
:103DE0004BF908B909F1FF39B9F1160F0ED84D4852
:103DF00000EBC903D3E90001DDE90423FEF764F910
:103E000028B1002209F1FF39149201E00120149039
:103E100016998E1B741E04D56542002008950990E2
:103E200002E0002309940893B9F1000F08DB099D13
:103E3000002305EB09000990CDF844900C9308E0AD
:103E4000089AC9F10006C9EB0201002408910C96FA
:103E50001194229A092A27D8052A03DD111F2291DD
:103E6000002500E00125229EB41E032C21D8DFE8A6
:103E700004F0060F0204012302E0012009E0002300
:103E8000239A0D93002A1EDD0B92079213461FE022
:103E90000020239C0D9004EB0900431C002B0B9089
:103EA000079315DC012313E00125002222920D95D2
:103EB00001E001260D964FF0FF3100260B9107918E
:103EC0001223239604E001210B9107910B462391C5
:103ED000DBF8244000206060042101F114029A42C2
:103EE00022D860684900421C6260F6E7AFF30080A8
:103EF00061436F63A787D23FB3C8608B288AC63FF0
:103F0000FB799F501344D33F0000F07F6A7000009C
:103F1000617000006F7000000EFCFFFFEEFBFFFF02
:103F20000000F83FD87000006168584600F044FE79
:103F30002060DBF82440079923680E290A9300F2D9
:103F40005E81002D00F05B81B9F1000FDDE9040115
:103F5000CDE9120133DD9D4B09F00F0703EBC706D6
:103F6000D6E900454FEA2916F2060CD5984A06F024
:103F70000F0602F12003D3E90023FDF73FFF0327DB
:103F8000CDE9040100E00227DFF8448276B1F307AF
:103F900008D520462946D8E90023FDF705FE01375C
:103FA00004460D46761008F10808EFE7DDE9040144
:103FB00022462B46FDF722FFCDE9040120E0C9F19E
:103FC0000007E7B1814E07F00F0506EBC502DDE9FA
:103FD00012010CCAFDF7E8FD7D4D3C1102274CB1E2
:103FE000E60704D5D5E900230137FDF7DDFD6410B0
:103FF0000835F4E702460B46CDE9042300E002272A
:104000001498E0B1DDE90445002220462946714BB1
:10401000FEF73CF898B1079989B10B9B002B40F350
:10402000EA80204609F1FF36294600226A4B1096A5
:10403000FDF7BAFD0137CDE904010B9C02E0079CB6
:10404000CDF840903846FDF749FDDDE90423FDF742
:10405000ABFD0022614BFDF7F5FBA1F15075064663
:104060002F46CCB9DDE9040100225D4BFDF7E8FBEA
:1040700032462B46CDE90401FEF726F8002840F031
:104080004782DDE90401324605F10043FDF7FEFFFA
:10409000002840F03682AEE04C480D99621E00EBDD
:1040A000C20300294BD0D3E9002300204D49FDF77E
:1040B000A5FE32462B46FDF7C3FBDDE90467CDE9DB
:1040C0000E010A9D39463046FEF708F88046FDF796
:1040D00005FD02460B4630463946FDF7B1FB08F1B7
:1040E000300305F8013BDDE90E2306460F46A846DE
:1040F000FDF7CCFF002840F0278332463B460020E6
:104100003449FDF79DFBDDE90E23FDF7BFFF0028D5
:1041100040F0D3800A99681AA0426CDADDE90E01FA
:1041200000222D4BFDF740FD0022CDE90E012A4B68
:1041300030463946FDF738FD06460F46C2E7D3E95B
:10414000000132462B46FDF72FFDDDE904670A9D8D
:10415000CDE90E012C19A84639463046FDF7BEFFC1
:104160000546FDF7BBFC02460B4630463946FDF7D7
:1041700067FB303508F8015BA04506460F4633D192
:104180000022184BDDE90E01FDF75CFB02460B46F1
:1041900030463946FDF798FF002840F08E80DDE973
:1041A0000E2300200F49FDF74BFB02460B4630461D
:1041B0003946FDF76BFFF0B14046804618F8012CF8
:1041C00000F1FF30302AF8D0BEE200BFD870000006
:1041D000B07100000000F03F0000244000001C40CF
:1041E000000014400000E03F00229A4BFDF7DCFC89
:1041F00006460F46B0E7DDE91245CDE90445179DB7
:10420000002D7CDBB9F10E0F79DC934C239904EB84
:10421000C9050029D5E9004514DA079A002A11DCFE
:1042200040F06E812046294600228C4BFDF7BCFCF5
:10423000DDE90423FDF73EFF079C2546002840F0FA
:10424000618168E10A9E07980A9F33180137089335
:1042500022462B46DDE90401FDF7D0FDFDF73EFFC8
:104260000790FDF73BFC22462B46FDF79DFC0246DE
:104270000B46DDE90401FDF7E3FA079E02463036FE
:1042800007F8016C089E0B46B742B84629D1FDF7E6
:10429000D9FA22462B4606460F46FDF715FF70B9A0
:1042A0003046394622462B46FDF7E6FE002800F050
:1042B0004D820799C90702D448E2DDF84090404694
:1042C000804618F8012C0138392A06D10A9B83420E
:1042D000F6D1302609F101091E7001784A1C0270DE
:1042E00034E200225B4BFDF75FFC00220023CDE9A6
:1042F00004010137FDF7C0FE0028A9D026E20D9F7A
:10430000002F30D0229A012A0ADC159911B105F24A
:10431000334302E01698C0F136030C9C089E16E069
:10432000079E0C9B711E8B4201DB5C1A06E00C9809
:10433000119F0D1A7C1911940C910024079A002AE0
:1043400003DA089E0023B61A01E0089E079B089D29
:10435000099AEF185846D31801210897099300F0DD
:1043600041FD054602E00C9C089E0D9D66B1099F2B
:10437000002F09DD0899099AB742A8BF3746C81B24
:10438000D31B0890F61B09930C9F002F20DD0D997D
:10439000C1B1002C10DD29462246584600F0BCFD74
:1043A000054652462946584600F025FD5146074627
:1043B000584600F036FCBA460C98021B08D0584606
:1043C000514602E00C9A5846514600F0A5FD82463F
:1043D0000121584600F006FD119A0446002A05DD29
:1043E00021465846119A00F097FD0446229B012B66
:1043F00010DC049971B90598C0F3130767B9184F19
:10440000074057B1089A0999531C481C0893099012
:10441000012702E0002700E0049F119A42B12169C0
:1044200004EB8100006900F091FCC0F1200300E082
:10443000012309995A1812F01F0315D0C3F1200067
:1044400004280FDD0898C3F11C03C2180892F6185F
:1044500010E000BF00002440D870000000001440AD
:104460000000F07F08D0034608991C33CA18099948
:104470000892F618CB180993089A002A04DD5146D1
:10448000584600F09BFD8246099A002A04DD214629
:10449000584600F093FD04461499E1B15046214678
:1044A00000F0E0FD002816DA514658460A220023A3
:1044B00000F0CEFB82460D9809F1FF3948B129463C
:1044C0000A225846002300F0C3FB0B9A05460792C8
:1044D00001E00B9B07930798002825DC229902290D
:1044E00022DD78B921460522079B584600F0B0FB33
:1044F00004462146504600F0B5FD00280BDC01E0E3
:1045000000242546239BDDF828806FEA030909E093
:10451000DDF840902546DDF82880312008F8010BB1
:1045200009F101090026FEE00D9B002B00F0B3808D
:10453000002E05DD29465846324600F03FFD05466F
:104540009FB16968584600F037FB2B6907469A1CF3
:1045500005F10C01920000F10C00FEF7A3F958469A
:104560003946012200F02AFD00E028460A9B0799FF
:104570000A9E5A18771C09922E4605462146504637
:10458000FFF7D0FA03463033079031465046029386
:1045900000F068FD214608902A46584600F07FFD4D
:1045A0008446C06807F1FF38029B50B96146504607
:1045B000CDF80CC000F056FD029B0246DDF80CC0A1
:1045C00000E00122584661460392029300F029FB65
:1045D000039A029B6AB9229959B9049800F0010123
:1045E00039B9392B2BD0089A002A2DDD079B31339E
:1045F0002AE00898002806DB1DD12299D9B9049831
:1046000000F00101B9B9002A1F461DDD5146012203
:104610005846029300F0D2FC2146824600F022FD6B
:104620000028029B02DC0FD1DA070DD5079B31333E
:10463000392F09D103E0002A09DD392B03D13923B1
:1046400008F8013B55E0013308F8013B6BE0099A9B
:10465000B846974207F8013C3BD051460A22002356
:10466000584600F0F5FA0A220023AE42824631464F
:10467000584604D100F0ECFA0646054609E000F081
:10468000E7FA294606460A225846002300F0E0FAD7
:104690000546013772E70D9E50462146FFF742FA64
:1046A0000A9A00F13003079893550136864207DADB
:1046B000514658460A22002300F0CAFA8246EBE728
:1046C000DDF82880079900260129ACBF884408F14D
:1046D0000108514601225846029300F06FFC214622
:1046E000824600F0BFFC0028029B02DC14D1DB07ED
:1046F00012D5414611F8010C8846392801F1FF31E5
:1047000007D10A988842F5D1312309F101090370D4
:1047100009E0421C0A7006E04046804618F8011C79
:1047200001383029F9D05846214600F07AFA6DB1A7
:104730002EB1AE4203D05846314600F072FA5846C8
:10474000294600F06EFA01E0DDF84090514600265F
:10475000584600F066FA88F80060249A269E09F10F
:104760000101116026B1C6F8008001E0024800E0B6
:104770000A9819B0BDE8F08F6E700000AFF30080AA
:104780000B692DE9F04105460C46002B3BD018B1D2
:10479000816909B900F0ECF84848844201D16C689D
:1047A00008E0474A944201D1AC6803E0454B9C4283
:1047B00008BFEC68A18931B301F0080002B2002AF9
:1047C00061D1626841F40060002AA08102DC236CA0
:1047D000002B18DDE66AB6B101F4805100200AB260
:1047E0002F6828600AB1626D10E001232846216A13
:1047F000B0470246013009D12B683BB11D2B01D0D7
:10480000162B1BD12F600020BDE8F081A68906F091
:10481000040001B229B16368666BD21A0EB1206C34
:10482000121A216A0023E66A2846B047411C0DD1BE
:104830002A685AB11D2A09D0162A07D0A1894FF03B
:10484000FF3041F04003A381BDE8F081A38900223D
:104850002169626003F48052216011B221B1421CCF
:1048600001D12B6803B96065616B2F600029CAD044
:1048700004F14400814202D0284600F0E1F8002013
:104880006063BDE8F0812669002EBCD089072368EB
:104890000CBF61690021C6EB03082660A160B8F176
:1048A000000FB0DDA76A2846216A32464346B84762
:1048B0000028C3DD3618C0EB0808F0E77070000070
:1048C00090700000B0700000F8B5074600F14C048D
:1048D00094B1A5686668013E0CD4B5F90C303BB1C3
:1048E000B5F90E00431C03D038462946FFF748FFB0
:1048F0006835F0E72468EBE7F8BD0000002310B549
:10490000044603604360836081814366C281036122
:10491000436183611946082200F15C00FDF7CBFF7B
:1049200004480549054A064B24626062A162E262BE
:10493000236310BD5529000077290000B32900002A
:10494000D729000070B568254D430E4605F10C01CE
:10495000FDF75EFF044640B100F10C00002184E841
:104960004200A0602A46FDF7A6FF204670BD000069
:1049700070B585690446002D22D1124B0126836251
:104980008661C5640565456500F01EF860602046D7
:1049900000F01AF8A060204600F016F80421E0604C
:1049A0002A466068FFF7AAFFA06809213246FFF790
:1049B000A5FFE06812210222BDE87040FFF79EBF0C
:1049C00070BD00BFC9480000F8B51C4B07461E6803
:1049D000B06910B93046FFF7CBFF4C36B468716848
:1049E000013904D4B4F90C5085B16834F8E7326861
:1049F0000AB13668F2E738460421FFF7A3FF3060BA
:104A00000028F6D10C243C60044615E04FF6FF73F5
:104A10000120A081E38165662560A5606560256150
:104A20006561A56104F15C0029460822FDF743FF9A
:104A30006563A563A564E5642046F8BD146F0000B6
:104A400030B500293CD051F8042C0B1F1D49002A19
:104A5000B8BF9B180A6812B95A600B6030BD934208
:104A60000ED219685818904203D15A5889184268D2
:104A7000196014485A60036030BD994203D80A4651
:104A800051680029F9D1146815199D420AD1186896
:104A90002318D0188842136012D108681B181360BD
:104AA0004B680CE002D90C23036030BD18681C1859
:104AB0008C4203D10C684968001918605960536032
:104AC00030BD00BF8C030010004870473801001053
:104AD00038B5074C054600202060084611461A46A6
:104AE000FCF70CF9431C02D1236803B12B6038BDDD
:104AF0009C030010F0B58B890C4603F002010AB24A
:104B000091B0054652BBB4F90E1000290ADAA1890A
:104B1000002701F0800210B2B84214BF40264FF4C3
:104B200080660EE001AA01F09DFC0028EFDB029FE9
:104B300007F47040B0F50056734253EB06074FF48C
:104B4000806628463146FDF763FE70B9A18901F4FD
:104B5000007210B2E8B941F00203A38104F14701E9
:104B6000012221602161626113E0A1890A4B41F0B9
:104B70008002AB62A2812060206166614FB128464D
:104B8000B4F90E1001F0BCFF18B1A08940F0010388
:104B9000A38111B0F0BD00BFC948000010B5C9B273
:104BA000034682189342184604D0047801338C429D
:104BB000F8D100E0002010BD70B5456A04460E46ED
:104BC0003DB91020FDF714FE606245608560056008
:104BD000C560656AEB6843B1626AD36853F8260022
:104BE00078B1016843F8261017E0042120462122FD
:104BF00001F02AFCE860606AC1680029ECD100205D
:104C000070BD012101FA06F56A1D2046920001F0EF
:104C10001BFC0028F3D04660856000230361C3605D
:104C200070BD70B5446A06460D463CB91020FDF7CC
:104C3000DFFD7062446084600460C4603DB1736AEB
:104C40006A68D86850F82210296040F8225070BD78
:104C50002DE9F0410C461E460D69074601F114018D
:104C60000023086801331FFA80FC02FB0C6C060C61
:104C7000564306EB1C401FFA8CFC060C0CEB004064
:104C8000AB4241F8040BECDBDEB1A268954213DBCA
:104C9000616838460131FFF78FFF8046206904F1D3
:104CA0000C01831C9A0008F10C00FDF7FBFD214666
:104CB0003846FFF7B6FF444604EB850201355661DE
:104CC00025612046BDE8F0812DE9F8431446984659
:104CD00003F10802092305460E4692FBF3F000217A
:104CE0000123984202DD5B000131FAE72846FFF715
:104CF00063FF014608980127092C48610F6112DD06
:104D000006F109094F46361917F8013B0A22303BD4
:104D10002846FFF79DFFB7420146F5D109EB04078E
:104D2000083F264602E006F10A07092634464445B4
:104D300009DABA1B135D28460A22303BFFF788FFC9
:104D400001340146F3E70846BDE8F883020C034648
:104D5000100410B91B04102000E0002013F07F4F56
:104D600001D108301B0213F0704F01D104301B0138
:104D700013F0404F01D102309B00002B04DB5B009D
:104D800001D501307047202070470368024613F0B8
:104D900007000BD0D90721D4980703D55908116013
:104DA00001207047980810600220704799B209B935
:104DB0001B0C102013F0FF0F01D108301B0A19073C
:104DC00001D104301B09990701D102309B08D90792
:104DD00002D45B0804D00130136070470020704794
:104DE0002020704710B50C460121FFF7E5FE012297
:104DF0004461026110BD2DE9F04F164633690A691E
:104E000085B09A420D4601DA35460E46D5F8108037
:104E10003769AA68696808EB07049442C8BF013182
:104E2000FFF7CAFE00EB8401143100F11403019175
:104E3000019A934203D2002243F8042BF8E706EBD1
:104E4000870705F1140305EB880C143702930CF166
:104E5000140E039700F1180306F11402039D114686
:104E6000AA424CD20988043209B3029F1D1F0026B2
:104E700057F8049BD5F800801FFA89FB1FFA88FABF
:104E800001FB0BAC4FEA19490CEB060A4FEA184636
:104E900001FB09681FFA8AFC08EB1A484CEA084A29
:104EA000BE454FEA184645F804ABE1D82E6032F80B
:104EB000021C11B353F8046C029F1D464FF0000909
:104EC00035F802ACB7F800B0B6B201FB0BACE14468
:104ED00046EA094645F8046CA84657F8046BB8F84A
:104EE00000A0360C01FB06A6043506EB19467745F3
:104EF0004FEA1649E4D3C8F800600433AEE7019BDB
:104F0000002C03DC046105B0BDE8F08F53F8042DDC
:104F1000002AF7D1013CF3E712F003032DE9F04139
:104F200005460E46174607D0234A5E1E52F8262035
:104F30000023FFF78DFE0646BF1039D06C6A3CB9DE
:104F40001020FDF755FC6862446084600460C46012
:104F5000D5F82480D8F808409CB9284640F2712141
:104F6000FFF740FF0446C8F808000020206008E072
:104F70007F101DD0D4F800804046B8F1000F0ED04D
:104F80000446F807F4D5314622462846FFF733FF9A
:104F9000314680462846FFF744FE4646E8E7284665
:104FA00021462246FFF727FF2060C0F80080E7E790
:104FB0003046BDE8F08100BFA07100002DE9F04748
:104FC0000C4623694FEA621808EB030A4968A56892
:104FD000814617460AF10106AE4202DD01316D003D
:104FE000FAE74846FFF7E8FD0022054600F1140005
:104FF000424504DA002140F822100132F8E728EA9D
:10500000E870226905EB8003143304EB820017F08B
:105010001F0704F1140100F1140E14D01846C7F153
:10502000200C00230A6802FA07F2134340F8043BFD
:1050300051F8043B714523FA0CF3F3D3036043B1F9
:105040000AF1020605E051F8042B8E4543F8042BC3
:10505000F9D8013E48462E612146FFF7E2FD284679
:10506000BDE8F08703460A69006930B5801A15D19A
:10507000151DAA0003F1140489189B1804330A1D96
:1050800053F8045D52F8041D8D4203D005D24FF051
:10509000FF3030BD9C42F3D330BD012030BD2DE93F
:1050A000F04706460C46084611461546FFF7DAFF5C
:1050B000071E08D139463046FFF77EFD0121016108
:1050C0004761BDE8F08701DB002703E023460127A5
:1050D0002C461D4661683046FFF76EFD2A6923693C
:1050E00005EB820104EB830CC7600CF1140C01F199
:1050F00014081434143500F11407002254F8046B1A
:1051000055F8041B1FFA86F94A441FFA81FA090C64
:10511000CAEB020EC1EB164606EB2E411FFA8EF9C2
:105120000A1449EA014147F8041BA84526463946B6
:10513000E4D866450DD256F8044BA5B2AD18220C42
:1051400002EB2544ADB2221445EA044441F8044B75
:10515000EFE751F8042D0AB9013BFAE70361BDE816
:10516000F08700000E4B0B40A3F15070002801DDCA
:10517000014608E041420B150021132B05DC4FF4DA
:10518000002040FA03F100207047322B4FF001025B
:10519000DABFC3F1330302FA03F31346184670472C
:1051A0000000F07F2DE9F84303698946191D00EBE3
:1051B0008108464656F8044B00F114072046FFF7D5
:1051C000C5FDC0F120020A284546C9F8002014DCBC
:1051D000C0F10B0124FA01F5B84545F07F5545F4BF
:1051E00040138CBF56F8085C0025153025FA01F2F3
:1051F00004FA00F442EA040025E0B84503D9043D6E
:1052000056F8081C00E00021B0F10B0616D004FA95
:1052100006F4C0F12B0221FA02FC44F07F5444F45E
:105220004014BD4244EA0C038CBF55F8044C0024E2
:1052300024FA02F001FA06F1084304E044F07F5436
:1052400044F4401308461946BDE8F8832DE9F743B6
:1052500001211D46DDF82890DDF82C801446FFF76B
:10526000ABFCC5F30A5725F07F43064623F47000D4
:105270000FB140F480100190DCB102AA684642F8F8
:10528000084DFFF782FD009C50B1019AC0F1200348
:1052900002FA03F122FA00F20C437461019200E079
:1052A0007461019A002A0CBF01240224B2613461A6
:1052B00007E001A8FFF769FD0199012471613461DC
:1052C00020303FB1A7F233473F18C9F80070C0F152
:1052D00035010AE006EB8403A0F23240C9F8000071
:1052E0001869FFF733FD6401211AC8F80010304631
:1052F000BDE8FE832DE9F3410E4669468046FFF77F
:1053000051FF0D46044601A93046FFF74BFF009FB1
:105310000B46019902467F1AD8F810003169401AED
:1053200007EB40110029D6BFA3EB015105EB015556
:105330000B4620462946FCF761FDBDE8FC8101399A
:105340004B1110B5591C136900EB810102EB83036B
:10535000143314329A4204D252F8044B40F8044BEE
:10536000F8E7884203D2002240F8042BF9E710BD89
:1053700002694B11934230B500F114040DDC0DDAD3
:1053800011F01F010AD000EB83056A6922FA01F5CA
:1053900005FA01F191420FD100E0134600EB8300C2
:1053A0001430A042024605D952F8041C04380029E2
:1053B000F7D001E0002030BD012030BD70B50E46B1
:1053C0001446054618B183690BB9FFF7D1FA17489F
:1053D000844201D16C6808E015498C4201D1AC6867
:1053E00003E0144A944208BFEC68A368581E0028E2
:1053F000A06014DAA36998420ADB2068067022686C
:1054000011780A2902D0084601320DE0284601E051
:10541000284631462246BDE87040FEF791BA216821
:105420000E70226812F8010B226070BD70700000CF
:1054300090700000B070000038B5074C05460020A1
:105440002060084611461A46FBF73AFC431C02D17D
:10545000236803B12B6038BD9C030010F8B50646E5
:1054600015460C4621B91146BDE8F840FDF7D0B904
:105470001AB9FFF7E5FA2C4612E001F051FBA842F9
:105480000ED230462946FDF7C3F9074638B121460A
:105490002A46FDF707FA30462146FFF7D1FA3C4687
:1054A0002046F8BD0B4611B1B1F1004F00D1E0B17B
:1054B000124AA3F58011914219D903F1FF4101F578
:1054C000E001914213D90E4A934212D903F10041EF
:1054D00091420ED90B4A934202D013F5801F0AD194
:1054E000D0F1010038BF002070470220704704202F
:1054F0007047032070470020704700BFFFFFDF7F29
:10550000FFFF0F000000F07F004870470000C07FE1
:105510000EB400B59CB0029006906FF000401DAB39
:10552000049007904FF402710A4853F8042BADF829
:1055300014104FF6FF71ADF81610006802A9019320
:1055400000F088FE029B00221A701CB05DF804EB8C
:1055500003B070473001001030B5056811F8012B19
:105560002C466B1C52B11D466378402B02DD5A2B32
:10557000D8BF20339342F1D0002030BD036001201A
:1055800030BD0000000000002DE9F04F97B0029000
:1055900088460F924FF0000A4FF0000B1191119ABC
:1055A00013780D2B05D8092B13D2002B00F0AF81F7
:1055B00012E02B2B06D02D2B02D0202B0CD108E093
:1055C000012300E00023541C119452780B932AB954
:1055D0009DE1511C1191E2E700240B94119C21786C
:1055E000302956D16378582B01D0782B45D10B99AF
:1055F0009F4E12AF00970191029811A9324613AB4A
:1056000000F09EFF10F00707054600F02585062FE5
:1056100003D1611C119100F01FBD129A3AB114A878
:105620003168FFF78CFE02981299FFF7FAFA013FF2
:105630001398042F1AD8DFE807F0080312150800A2
:10564000DDF850A0DDF854B010E0159B00F23342B5
:1056500023F48014DDF850A044EA025B06E0DFF892
:1056600014B203E06FF0004B4FF0FF3A290740F10E
:10567000F3844BF0004B00F0EFBC119C621C1192C4
:1056800061783029F9D0002900F0E68401260496DB
:1056900001E000250495119F0697002703973E46D9
:1056A000119D2C782F2C16DC0298FFF70DFAD0F8FC
:1056B00000900298FFF708FA0068FDF79BF9494649
:1056C00002462846FDF79EF98146C8B100233546BB
:1056D0001A46079374E0392CE6DC0F2E0CDC082EFA
:1056E000D8BF03984FF00A03A4F13004D6BF03FBE0
:1056F000004003FB074703906C1C01361194CFE771
:105700000298119CFFF7E0F90068FDF773F9231880
:105710001193245C1EB135464B464A4645E033465C
:10572000302C05D1119D01336A1C11926C78F7E77A
:10573000A4F1310008283FD8119A06921A46002396
:105740001D46591CB4F130092AD05218681CC5EB0B
:10575000000C8C4511DA00F1FF3EBEF1100F0ADC9F
:105760000928D8BF039C4FF00A0CD6BF0CFB04F4E9
:105770000CFB07F703940130E9E7002BACBFEB18F3
:105780002B1C5D1C102B0ADC092DD8BF039C4FF08D
:105790000A00D6BF00FB049400FB07970394002186
:1057A000119C631C119364780B46A4F13000092806
:1057B000C7D90121079103E0002501212A4607915D
:1057C000652C01D0452C59D125B91BB9049C002C5E
:1057D00000F09D80DDF8448008F10100119098F8F8
:1057E00001402B2C03D02D2C03D0002007E00020FB
:1057F00000E0012008F10201119198F80240A4F1A3
:10580000300EBEF1090F37D8302C06D1119C04F1AF
:105810000109CDF844906478F6E7A4F13109B9F1B3
:10582000080F2BD8A4F1300C119C0594119901F1AB
:10583000010ECDF844E04C782F2C0BDC0599C1EB20
:105840000E09B9F1080F44F61F690CDCCC45B8BF4E
:10585000E14608E0392CF1DC4FF00A0E0EFB0C4C4F
:10586000ACF1300CE2E758B1C9F1000908E000BF23
:10587000700100100000F07FCDF844804FF0000967
:10588000002D49D1002B40F0E783049A002A40F014
:10589000E383079B002B3AD14E2C1BD002DC492C12
:1058A00035D104E0692C02D06E2C30D112E011A861
:1058B000A449FFF751FE50B3119C11A8611E11912C
:1058C000A149FFF749FE10B91198421C1192DFF867
:1058D0008CB219E011A89D49FFF73EFEB8B1119BAB
:1058E0001C78282C0ED111A8994914AA01F076F839
:1058F000052807D11599DDF850A041F0FF4040F48C
:10590000E00BA9E3DFF860B24FF0000AA4E3002146
:10591000CDF844800B919FE3C2EB090203980592F6
:10592000FCF7CCF8102DB4BF2C461024002E08BF75
:105930002E46092C82468B4615DD864B03EBC402AE
:10594000A2F14803D3E90023FCF72EF9804638463C
:105950008946FCF7B3F802460B4640464946FBF73A
:1059600071FF82468B460F2D36DC0598002800F02B
:10597000738323DD162806DC7649524601EBC0000E
:1059800003C85B4615E00598C5F12502904223DC6B
:10599000704CC5F10F0504EBC502D2E900015B466E
:1059A0005246FCF701F9059B5D1B04EBC504D4E9E5
:1059B0000023FCF7F9F882468B464DE3059911F177
:1059C000160F09DB634C5046A4EBC103D3E9002357
:1059D0005946FCF713FAEEE7291B059C6418002CC6
:1059E00054DD14F00F000AD05A4A5B4602EBC001A6
:1059F000D1E900015246FCF7D7F882468B4634F0D5
:105A00000F0300F0B580B3F59A7F0FDD4FF000086B
:105A1000CDF80C80CDF81C80CDF81880029822219A
:105A20000160DFF838B14FF0000A72E11F115046F3
:105A300059464FF00008012F0CDDFA0706D5464AFB
:105A400002EBC803D3E90023FCF7AEF808F1010824
:105A50007F10F0E702464048A1F1547300EBC80103
:105A6000D1E90001FCF7A0F83C4B3D4C0B40A342B0
:105A700082468B46CAD8A4F58017BB4286BFDFF8A2
:105A8000ECB04FF0FF3A01F1547B71E070D0674207
:105A900017F00F030AD02F4A504602EBC3045946B1
:105AA000D4E90023FCF7AAF982468B463F115FD068
:105AB0001F2F08DD4FF00008CDF80C80CDF81C80BA
:105AC000CDF818801EE117F0100F14BF6A200020D7
:105AD000244C049059465046002F08DDFB0703D59F
